:020000040800F2
:100000001017002039010008414000084340000853
:1000100000000000000000000000000000000000E0
:1000200000000000000000000000000097390008F8
:100030000000000000000000F7000008233A00085C
:10004000690100080000000069010008690100085A
:1000500069010008690100086901000869010008D8
:10006000000000006901000869010008690100083A
:10007000690100086901000869010008000000002A
:10008000690100080000000000000000690100088C
:100090006901000869010008690100086901000898
:1000A000690100086901000869010008AD510008F4
:1000B000690100080348854605F01AFC004800471E
:1000C000913C000810170020064B19680868203082
:1000D00080F30988022080F314883FBCAE4662B6E4
:1000E00000BD000020000020EFF3108072B67047C2
:1000F00080F310887047EFF309800E4B1A682038A0
:100100001060F0C044464D4656465F46F0C008B504
:1001100072B603F06EF862B60CBC11680868103055
:10012000F0C8A046A946B246BB4680F309882038ED
:10013000F0C81847200000200C4880F308880C48BD
:100140000168090E0B4A914205D10B480B49016029
:100150000B480C4901600C4880470C480047FEE7FB
:10016000FEE7FEE7FEE7FEE7FEE7000010170020CF
:10017000040000001F0000001810024001000000F1
:100180000000014000000000173F0008B500000813
:1001900010B504460920C006844209D10121480453
:1001A00000F047FC00210120400400F042FC3CE04C
:1001B0007448844208D10121000200F03AFC002179
:1001C000200200F036FC30E06F48844208D1012163
:1001D000000200F02EFC0021200200F02AFC24E0A6
:1001E0006A48844209D10121080500F022FC00215F
:1001F0000120000500F01DFC17E06548844208D18D
:100200000121400200F015FC0021600200F011FC09
:100210000BE06048844208D10121880500F009FC08
:1002200000210120800500F004FC10BDF0B50A4655
:1002300000210023002400BF3DE001258D402B4616
:1002400015681D402C469C4234D11579012D02D0F1
:100250001579022D16D185684F000326BE40B5439F
:10026000856055794E00B540866835438560858840
:1002700001268E40B5438580858896798E40B6B23A
:100280003543858005684F000326BE40B5430560B1
:1002900015794E00B540066835430560C5684F00C6
:1002A0000326BE40B543C560D5794E00B540C6684B
:1002B0003543C560491C1029BFD3F0BD36490160E4
:1002C000002101710121417100218171C1717047CB
:1002D00008B5012212040092009A0A430092009A83
:1002E000C261C161009AC261C2690092C269009292
:1002F00008BD02460020138A0B40002B01D00120CC
:1003000000E0002070470146088A7047024600203E
:10031000938A0B40002B01D0012000E000207047A1
:100320000146888A70478161704701857047002ABD
:1003300001D0816100E00185704781827047F0B58E
:10034000002300244D07EE0E1546B5402B46CD1078
:10035000AE0005462035AD594E07F70E0F26BE40BC
:10036000B543CE10B60007462037BD51CD10AE00C4
:100370003D46AD591D432C46CD10AD003E4674514F
:10038000F0BD00000004004800080048000C0048D0
:100390000010004800140048FFFF0000F848006803
:1003A00001210843F649086008464068F5490840BD
:1003B000F349486008460068F3490840F04908607E
:1003C00008460068012189048843ED490860084611
:1003D00040683F2109048843E94948600846C06AEB
:1003E00000090001C8620846006BE8490840E4497A
:1003F00008630846406B400840004863002088605E
:1004000070470021DE4A917011468870704710B520
:1004100002460021002300205111002902D1D84CAE
:1004200023680BE0012902D1D54C236A06E002299A
:1004300002D1D34C636A01E0D14C636BD106C90E83
:1004400001248C401C40002C01D0012000E0002041
:1004500010BD38B5002000900024002500BF1120F9
:10046000FFF7D5FF05460098401C009005210903C1
:100470000098884201D0002DF1D01120FFF7C7FF6E
:10048000002801D0012400E00024204638BD0146A8
:100490000020BB4A1068F82302469A431046CA005F
:1004A0001043B74A10607047002806D0B449096865
:1004B00001221143B24A116005E0B14909684908B7
:1004C0004900AF4A1160704701460020AC4A506BAA
:1004D000F82302469A431046CA001043A84A5063C4
:1004E0007047002806D0A649496B01221143A44A4F
:1004F000516305E0A249496B49084900A04A51638C
:100500007047002806D09E49496B042291439C4ABB
:10051000516305E09A49496B04221143984A51639B
:1005200070479749096A49084900954A116211467E
:10053000096A04229143924A11621146096A0143F1
:10054000116270478E49096A182291438C4A1162E0
:100550001146096A014311627047002806D0884994
:10056000496A01221143864A516205E08449496A79
:1005700049084900824A51627047814A52687B2388
:10058000DB039A437E4B5A601A46526803460B437C
:100590001A437B4B5A607047002807D07849096896
:1005A000012212061143764A116006E07449096877
:1005B000012212069143724A11607047002807D049
:1005C0006F49496B0122120411436D4A516306E0E1
:1005D0006B49496B012212049143694A5163704788
:1005E00001460020664AD06A0009000102460A431B
:1005F0001046634AD0627047002807D060490968F6
:100600000122D20411435E4A116006E05C49096888
:100610000122D20491435A4A1160704702460020D9
:10062000574B58680002000A13060B431843544BFB
:100630005860704701460020514A50688008800089
:1006400002460A4310464E4A506070474C48406884
:100650000C210840704701460020494A5068F023A9
:1006600002469A43104602460A431046444A5060E6
:10067000704701460020424A506807231B02024689
:100680009A43104602460A4310463D4A506070475E
:100690003B494968012292039143394A516011460E
:1006A000496882B21143364A51601146096B92156E
:1006B0009143334A11631146096B020C1143304ACE
:1006C000116370472E49096B402291432C4A1163F4
:1006D0001146096B0143116370472949096B1022C8
:1006E0009143274A11631146096B01431163704717
:1006F0000021010F012906D1214A126B92089200B4
:100700001F4B1A6310E0022907D11D4A126B032305
:100710001B049A431A4B1A6306E0194A126B03230F
:100720009B049A43164B1A63154A126B0243144BEF
:100730001A6370471249096B80229143104A116372
:100740001146096B014311637047FEB5044600254D
:100750000026002002900190009000270848406881
:100760000C2108400546002D06D0042D12D0082D7E
:1007700013D00C2D37D133E00548206036E000005F
:10078000001002400CB8FF08FFFFF6FEACFEF0FFC1
:1007900000127A00CE48206028E0CE4840680F2141
:1007A000890408400646CB4840680321C903084035
:1007B0000290B00C861C0298002803D1C648374628
:1007C00047430BE0C348C06A0007000F401C01907C
:1007D000BF48019905F052F870430746276005E0CD
:1007E000BE48206002E0BA48206000BF00BFB948A0
:1007F0004068F021084005462D09B948405D009049
:1008000020680099C8406060B2484068072109022A
:10081000084005462D0AB248405D00906168009886
:10082000C140A160AB48006BFF2101310840884204
:1008300002D0AC48E0600DE0A64840680121890381
:100840000840884203D0A0684008E06002E0A06849
:100850008008E0609F48006B40210840402802D09B
:10086000A148206102E00120C00320619948006B8B
:1008700010210840102802D09548606101E02068EE
:1008800060619448006B8007800F002802D1A06847
:10089000A06119E08F48006B8007800F012802D10A
:1008A0002068A06110E08B48006B8007800F022851
:1008B00002D18003A06107E08648006B8007800FAB
:1008C000032801D18248A0618248006B03210904FA
:1008D0000840002802D1A068E06120E07D48006B5C
:1008E00003210904084001210904884202D120683B
:1008F000E06114E07748006B0321090408400121FE
:100900004904884202D18010E06108E07148006B20
:10091000032109040840884201D16D48E0616D4817
:10092000006B032189040840002802D1A0682062DE
:1009300020E06848006B03218904084001218904F4
:10094000884202D12068206214E06248006B0321D3
:10095000890408400121C904884202D100112062A3
:1009600008E05C48006B032189040840884201D1FB
:10097000574820625748006B80210840802802D0E9
:100980005648606200E06762FEBD5249096A014351
:10099000504A11627047002807D04E49096A012267
:1009A000D20311434B4A116206E04A49096A012207
:1009B000D2039143474A11627047002807D0454946
:1009C000096A012212041143424A116206E04149B8
:1009D000096A0122120491433E4A116270470029BC
:1009E00005D03C4A526902433A4B5A6104E0394A05
:1009F00052698243374B5A617047002905D0354A06
:100A000092690243334B9A6104E0324A926982430D
:100A1000304B9A617047002905D02E4AD2690243B3
:100A20002C4BDA6104E02B4AD2698243294BDA610C
:100A30007047002905D0274A926A0243254B9A62E3
:100A400004E0244A926A8243224B9A62704700294A
:100A500005D0204AD26802431E4BDA6004E01D4AEA
:100A6000D26882431B4BDA607047002905D0194ACF
:100A700012690243174B1A6104E0164A1269824355
:100A8000144B1A617047002905D0124A527A02436A
:100A9000104B5A7204E00F4A527A82430D4B5A723D
:100AA00070470C48406A0121090608430949486219
:100AB000704701460020074A92680A40002A01D088
:100AC000012000E000207047024988727047000052
:100AD00000127A000010024000093D00006CDC02A8
:100AE00000000020809FD5001280000010B5044651
:100AF000F848844209D101218803FFF7A8FF0021AB
:100B000001208003FFF7A3FF56E0F348844209D198
:100B100001214804FFF7A9FF002101204004FFF74D
:100B2000A4FF49E0ED48844209D101218804FFF780
:100B30009CFF002101208004FFF797FF3CE0E8487C
:100B4000844209D10121C804FFF78FFF0021012051
:100B5000C004FFF78AFF2FE0E248844209D1012157
:100B60000805FFF782FF002101200005FFF77DFF48
:100B700022E0DD48844208D101212020FFF767FFF1
:100B800000212020FFF763FF16E0D848844208D1F7
:100B900001214020FFF75BFF00214020FFF757FFB6
:100BA0000AE0D348844207D101218020FFF74FFF9C
:100BB00000218020FFF74BFF10BDF0B58BB004463D
:100BC0000D46002700200A900026206840084000BB
:100BD0002060666803210903304688430646A868FA
:100BE000064366602668C3480640E96868680843AB
:100BF0002969084306432660A66803210902304696
:100C00008843064668690643A6606846FFF79DFD6F
:100C1000B048844202D106980A900DE0AE48844262
:100C200002D107980A9007E0AC48844202D10898A4
:100C30000A9001E002980A9020680121C903084047
:100C400000280CD029680A9A500004F017FE0746C5
:100C500029680A9A500004F011FE0E4609E029683E
:100C60000A9804F00BFE074629680A9804F006FE6D
:100C70000E4628684008B04200D87F1C2068012139
:100C8000C9030840002806D03807460F38469A495D
:100C9000084030430746A7810BB0F0BD4B21C90186
:100CA0000160002141608160C1600C21016100216F
:100CB0004161704710B5002242680F242402134698
:100CC000A3431A464C680B6823438C682343CC68C3
:100CD00023431A43426010BD0021016041608160DE
:100CE000C1607047002904D0026801231A430260E2
:100CF00003E002685208520002607047002A03D0E5
:100D000003680B43036002E003688B430360704792
:100D1000002905D002680123DB031A43026004E0C6
:100D200002680123DB039A4302607047002905D063
:100D300082680123DB021A43826004E08268012397
:100D4000DB029A4382607047002905D04268012384
:100D5000DB041A43426004E042680123DB049A4347
:100D600042607047002905D0426801239B041A4362
:100D7000426004E0426801239B049A43426070474A
:100D8000002A03D043680B43436002E043688B436F
:100D900043607047002905D042680123DB031A43F2
:100DA000426004E042680123DB039A4342607047DB
:100DB000002905D042680123DB051A43426004E0A4
:100DC00042680123DB059A43426070474269120E74
:100DD0001206426142690A4342617047028AFF2358
:100DE0001B021A400282028A0A43028270470029CB
:100DF00004D0026802231A43026003E0026802235F
:100E00009A4302607047826803231B059A438260FD
:100E100082680A4382607047002905D04268012336
:100E20001B051A43426004E0426801231B059A43F4
:100E300042607047426803235B059A434260426800
:100E40000A4342607047CA05D20D028570470146C9
:100E5000888CC005C00D704742681202120A4260B9
:100E600042680B061A4342607047002905D00268A9
:100E700001235B031A43026004E0026801235B0361
:100E80009A430260704702680123DB029A430260C2
:100E900002680A4302607047426810239A43426026
:100EA00042680A4342607047426820239A43426086
:100EB00042680A4342607047002905D04268012316
:100EC0009B031A43426004E0426801239B039A4358
:100ED0004260704700380140004400400048004034
:100EE000004C004000500040001401400018014038
:100EF000001C0140F3E9FFFFF0FF0000002904D0CF
:100F0000826808231A43826003E0826808239A43B8
:100F100082607047028AD2B20282028A0B021A43AE
:100F200002827047002904D0826820231A4382601D
:100F300003E0826820239A4382607047002904D02E
:100F4000826810231A43826003E0826810239A4368
:100F500082607047826807235B049A4382608268DC
:100F60004B041A438260704742691202120A4261BE
:100F700042690B061A4342617047826804239A4310
:100F8000826082680A4382607047002904D08268C8
:100F900002231A43826003E0826802239A4382603C
:100FA0007047002905D0826801239B031A438260A1
:100FB00004E0826801239B039A4382607047826841
:100FC0000123DB039A43826082680A438260704790
:100FD00002681F235B059A43026002684B051A43AF
:100FE0000260704702681F231B049A430260026874
:100FF0000B041A4302607047002A03D083680B4336
:10100000836002E083688B438360704782680123BA
:101010005B039A43826082680A4382607047F8B536
:1010200003460024002600960025002018460E04E2
:10103000340ECEB200960127009EB7403D46022CEA
:1010400001D1001D02E0032C00D10830002A03D09A
:1010500006682E43066002E00668AE430660F8BDEF
:10106000002A03D0038B0B43038302E0038B8B43E3
:1010700003837047826801231B039A43826082685E
:101080000A438260704702460020D3690B40002B60
:1010900001D0012000E0002070470162704770B568
:1010A00002460B4600240021002500201E04350EB8
:1010B000D9B201268E403146012D02D11668314049
:1010C00006E0022D02D15668314001E096683140B9
:1010D0001C0C0126A6403446D6693440002903D0B2
:1010E000002C01D0012000E0002070BD10B50023CD
:1010F00000220B0C01249C402246026210BD00001D
:1011000000218278002A27D0274A03231B02D21805
:1011100003789B109B00D15802789207D30EFF22D0
:101120009A400B469343194642789207120E037871
:101130009B07DB0E9A4011431B4A03231B02D21864
:1011400003789B109B00D1500278D306DB0E01225E
:101150009A40154B1A6007E00278D306DB0E012295
:101160009A40114B80331A607047002905D00F4A0E
:10117000126902430D4B1A6104E00C4A1269824362
:101180000A4B1A617047042806D1094909690422EB
:101190001143074A116105E0054909690422914399
:1011A000034A11617047000000E100E000ED00E03B
:1011B00000E000E010B50446F748844208D1012160
:1011C000C014FFF744FC0021E014FFF740FC62E08C
:1011D00001208007844208D101210846FFF745FC21
:1011E00000210120FFF741FC55E0EC48844208D182
:1011F00001210220FFF739FC00210220FFF735FC16
:1012000049E0E748844208D101211020FFF72DFC76
:1012100000211020FFF729FC3DE0E248844208D17C
:1012200001212020FFF721FC00212020FFF71DFCD9
:1012300031E0DD48844208D101218015FFF715FC1B
:101240000021A015FFF711FC25E0D848844209D100
:1012500001210804FFF7FBFB002101200004FFF738
:10126000F6FB18E0D248844209D101214804FFF777
:10127000EEFB002101204004FFF7E9FB0BE0CD4825
:10128000844208D101218804FFF7E1FB00210120FD
:101290008004FFF7DCFB10BD00220288BE4B9842A1
:1012A00006D001239B07984202D0BC4B984203D141
:1012B000C14B1A404B881A43B94B984203D0BF4BDD
:1012C0001A400B891A4302804B68C3620B8803855E
:1012D000B14B984208D0B54B984205D0B44B9842D8
:1012E00002D0B44B984201D18B7A038601238382CA
:1012F00070470021C9434160002101800181418084
:10130000817270470185828270470A4600210188F8
:10131000A94B19400B46134319460180704741629F
:101320007047C16270470146486A70470146088DA0
:101330007047002904D0028802231A43028004E087
:1013400002889D4B6E331A4002807047002904D0FA
:10135000028804231A43028004E00288964B6C330F
:101360001A4002807047002904D0028880231A4363
:10137000028004E00288904B103B1A4002807047C4
:1013800002888D4B68331A40028002880A4302802B
:1013900070470288894B1A40028002880A43028003
:1013A0007047002904D0028801231A43028004E018
:1013B0000288814B6F331A40028070470A884B883D
:1013C0001A438B881A43CB881A430B891A434B89DB
:1013D0001A438B891A4344231A5270470021018013
:1013E00041808180C18001814181818170470029D4
:1013F00007D04422125A0123DB031A4344231A5212
:1014000005E04422125A53045B0C442213527047E5
:1014100070B5002400220023058C674E6F363540DE
:101420000584028C8388048B634D2C40B51E2C40B0
:101430000D882C43751E2A408D892A434D882A43E6
:10144000554DA84208D0594DA84205D0584DA84244
:1014500002D0584DA84212D1574D68352A40CD8947
:101460002A43554D6C352A408D882A43524D903D74
:101470002B40534D2B400D8A2B434D8A2B438380A9
:1014800004838D684563028470BD70B5002400221A
:101490000023058C484E603635400584028C8388D5
:1014A000048B484D2C40454D2C400D782D062D0CBD
:1014B0002C43414D50352A408D892D052D0C2A4352
:1014C0004D882D052D0C2A43334DA84202D0374DAF
:1014D000A8421CD13C4D2B400D8AAD042D0C2B4352
:1014E0002D4DA84213D1344D103D2A40CD892D05F4
:1014F0002D0C2A43304D30352A408D882D052D0C7A
:101500002A43324D2B404D8AAD042D0C2B43838052
:1015100004838D688563028470BD70B50024002249
:101520000023058C244E903E35400584028C838830
:10153000848B214D2C40204D6D352C400D882C4343
:101540001F4D2A400D7B2D062D0C2A438D782D062C
:101550002D0C2A43104DA84217D11C4D2A408D7BDB
:101560002D062D0C2A43184D2A400D792D062D0CE1
:101570002A43174D2B40174D2B400D8A2D052D0C5E
:101580002B434D8A2D052D0C2B43838084838D683E
:10159000C563028470BD0000002C014000040040BF
:1015A00000100040001400400020004000400140B6
:1015B00000440140004801408FFF0000FFFC000094
:1015C000FFFD0000FF8F0000FFFB0000FFF70000A1
:1015D000FFEF0000FFDF000070B5002200230024B1
:1015E000058CF94E35400584038C8488828BF74D39
:1015F0002A40F74D2A400D782D062D0C2A43F54D33
:101600002B400D7B2D072D0C2B438D782D072D0C9A
:101610002B43F14DA84205D1F04D2C400D8AAD056C
:101620002D0C2C43848082838D680564038470BDF7
:10163000002101804180818081608181C18101829E
:101640004182704770B503460020002418461830C8
:1016500001258D40ACB21D8CA5431D84002901D00D
:10166000082909D14D10281805687026B543056072
:101670000568154305600DE00D1F2D046D0C28183D
:10168000056807263603B543056005681606360C5F
:101690003543056070BD4163704781637047C16326
:1016A0007047016470470A460021018BCC4B1940FA
:1016B0000B4613431946018370470A460021018BEC
:1016C000C24B194013061B0C1943018370470A468D
:1016D0000021818BC24B19400B461343194681836D
:1016E00070470A460021818BB84B194013061B0C2A
:1016F000194381837047002904D0828801231A434B
:10170000828004E08288B64B6F331A408280704733
:101710000A460021018BB24B683319400B46134334
:101720001946018370470A460021018BAD4B1940D1
:1017300013061B0C1943018370470A460021818B55
:10174000A74B683319400B461343194681837047F2
:101750000A460021818BA34B194013061B0C194329
:10176000818370470A460021018B9D4B6C331940E1
:101770000B4613431946018370470A460021018B2B
:10178000994B194013061B0C1943018370470A46F5
:101790000021818B924B6C3319400B461343194641
:1017A000818370470A460021818B8F4B19401306B5
:1017B0001B0C1943818370470A460021018B884B1B
:1017C000103B19400B4613431946018370470A46E4
:1017D0000021018B4904490C13061B0C194301839A
:1017E00070470A460021818B7D4B103B19400B4608
:1017F00013431946818370470A460021818B4904AF
:10180000490C13061B0C1943818370470A460021BB
:10181000018C734B6E3319400B46134319460184F8
:1018200070470A460021018C6D4B683319400B4606
:1018300013431946018470470A460021018C684B06
:101840005033194013051B0C1943018470470A4695
:101850000021018C624B103B194013051B0C1943EE
:10186000018470470A460021018C604B1940130621
:101870001B0C1943018470470A460021018C594B07
:10188000194013061B0C1943018470470A460021B6
:10189000018C504B194013071B0C194301847047EE
:1018A00002894F4B68331A40028102890A43028140
:1018B000704730B5002301248C40A3B2048C9C43B4
:1018C0000484048C15468D40ADB22C43048430BD95
:1018D00030B5002304248C40A3B2048C9C430484C0
:1018E000048C15468D40ADB22C43048430BD0029D4
:1018F00004D0828804231A43828004E08288384B13
:101900006C331A4082807047828B394B1A40828335
:10191000828B0B061B0C1A4382837047F8B50C466A
:101920000021002500260096068C274F3E400684A5
:10193000818B058C2607360C00962E4E31401606FC
:10194000360C31431E07360C31432B4E35400127F0
:101950003F03009E3E43354381830584F8BD828B5F
:101960001F4B64331A408283828B0A438283704701
:10197000F8B50C460021002500260096068C184F6D
:10198000903F3E400684818B058C2606360C0096DF
:10199000134E833E31401E05360C16433143174E1D
:1019A0003540FF270137009E3E4335438183058440
:1019B000F8BD028B0E4B1A400283028B0B061B0CE8
:1019C0001A43028370470000FFEF0000FF8F000002
:1019D000FFFC0000FFDF0000002C0140FFBF000003
:1019E0008FFF0000FFF70000FFFB0000FFFD00007D
:1019F000FFF30000FF0C0000FF5F0000FFF5000098
:101A0000F8B50C460021002500260096068CE64F0E
:101A10003E400684018B058C2605360C0096E34E6D
:101A200031401E07360C31431606360C3143DE4E6C
:101A3000903E35401027009E3E4335430183058488
:101A4000F8BD028BD84B1B1D1A400283028B0A4340
:101A500002837047F0B50C4600210025068CD24F5A
:101A60000F373E400684018B058CCF4EE33E31405C
:101A70001E05360C16433143CB4EB61D35400126AC
:101A80002643354301830584F0BD70B505460C46F9
:101A9000208800280AD12389A28861882846FFF778
:101AA000D9FFE1882846FFF7CCFF25E020880428ED
:101AB0000AD12389A28861882846FFF7A1FFE1881F
:101AC0002846FFF776FF17E0208808280AD12389E7
:101AD000A28861882846FFF74BFFE1882846FFF778
:101AE0003EFF09E02389A28861882846FFF716FF98
:101AF000E1882846FFF708FF70BD00210180418082
:101B0000012181800021C18001817047F8B505461F
:101B10000C46002601276088002801D1022600E03B
:101B20000026A088012801D1022700E00127208893
:101B3000002814D12389A28861882846FFF78AFFEC
:101B4000E1882846FFF77DFF23893A46314628463B
:101B5000FFF756FFE1882846FFF72BFF13E02389A4
:101B6000A28861882846FFF74BFFE1882846FFF7E7
:101B700020FF23893A4631462846FFF76BFFE1886C
:101B80002846FFF75EFFF8BD0146486B70470146E7
:101B9000886B70470146C86B70470146086C7047F8
:101BA000002A03D083890B43838102E083898B431E
:101BB000838170478182704702460020138A0B4060
:101BC000002B01D0012000E000207047CA430282B0
:101BD000704730B50246002000230024158A0D40CE
:101BE0002B4695890D402C46002B03D0002C01D0AC
:101BF000012000E0002030BDCA430282704710B5CA
:101C00000B4613434824235210BD002A03D0838976
:101C10000B43838102E083898B43838170470029D2
:101C200004D0828808231A43828004E082885E4BB5
:101C300008331A408280704701895B4A093211409B
:101C4000018170470A4600210189574B603B1940CA
:101C50000B46134319460181704730B504460D46C3
:101C600029462046FFF7EEFF2089072108432081FF
:101C700030BDF8B504460D4616461F46602D06D108
:101C80003B46012231462046FFF7BAFE05E03B46BF
:101C9000012231462046FFF7DDFE29462046FFF7A8
:101CA000D1FF2089072108432081F8BD30B50C46BB
:101CB00000210189C9B21D062D0C15432543294376
:101CC000018130BDFFB505460E46174600243A4651
:101CD00031462846039BFFF7E9FF2C89324809303B
:101CE0000440072004433048603804407020044317
:101CF0002C81FFBDF0B504460D4616461F463B46F7
:101D0000324629462046FFF7D1FF20890121890369
:101D100008432081F0BD8288234B603B1A408280BB
:101D200082880A438280704702891F4B09331A4018
:101D3000028102890A430281704702891A4B703B73
:101D40001A40028102890A4302817047F0B50C46AD
:101D50000021002500260189058B068C124F0937CA
:101D600039400F4627433946114F3D40FF27023780
:101D70003D430D4F9A3F3E401F053F0C17433E43E6
:101D8000018105830684F0BD002904D08288802368
:101D90001A43828004E08288034B703B1A408280A1
:101DA0007047502211527047EFFF0000FF0C0000F7
:101DB000FCFC00000146083141600021C94301815B
:101DC00001460831C16001610021016070470021B6
:101DD0000161704742684A6093688B6093685960FC
:101DE0009160086103685B1C0360704710B5024690
:101DF0000B88164CA34201D1106907E01046083049
:101E000000E04068446824889C42FADD44684C60E5
:101E10004C68A160886041600A611468641C1460A9
:101E200010BD01464B68886898608B6848685860A8
:101E30000A695068884201D18868506000200861B2
:101E40001068401E1060106870470000FFFF00001F
:101E500070B505460E462C46002C02D172B600BF66
:101E6000FEE701F0C8FD216CE06B48432168401893
:101E700060600020A0632068A060E06B401E216CC1
:101E8000484321684018E0600020C0436064A064BB
:101E9000002E10D12069002801D1012000E000208F
:101EA000002810D12046103001F02CFC01280AD166
:101EB00001F098FD07E020461030FFF77BFF204639
:101EC0002430FFF777FF01F0A1FD012070BDFEB5C2
:101ED00005460E46174600200090002D1DD05020CC
:101EE00001F0CDFD0446002C17D028467043401C5D
:101EF0000190019801F0C3FD20602068002809D0FE
:101F0000E563266401212046FFF7A2FF4D20075517
:101F1000009402E0204601F005FE0098002802D15E
:101F200072B600BFFEE70098FEBD10B5044601F092
:101F300062FD14E0606A002801D1012000E0002069
:101F4000002808D12046243001F0DCFB002803D013
:101F500001F077FC00E005E0A06C401EA064A06CDE
:101F60000028E7DC00BF0020C043A06401F04EFD64
:101F700001F041FD14E02069002801D1012000E0BA
:101F8000002000280BD12046103001F0BBFB0028B8
:101F900001D001F056FC606C401E606400E002E07D
:101FA000606C0028E7DC00BF0020C043606401F0E3
:101FB0002DFD10BD70B5054601F01DFDA86BE96B48
:101FC000884201D1012400E0002401F01FFD2046D9
:101FD00070BD70B504460E461546206C002808D129
:101FE0002068002830D1606801F088FC0020606023
:101FF0002AE0002D0FD13146226CA06803F054FC7A
:10200000216CA0684018A0606168A06888421BD35A
:102010002068A06018E03146226CE06803F044FCC0
:10202000216CE068401AE0602168E068884203D2D1
:10203000216C6068401AE060022D05D1A06B002879
:1020400002D0A06B401EA063A06B401CA06370BDBB
:10205000FFB583B006460F461D4600200290344669
:10206000002C02D172B600BFFEE7002F02D1206C17
:10207000002801D1012000E00020002802D172B622
:1020800000BFFEE7022D02D1E06B012801D1012043
:1020900000E00020002802D172B600BFFEE700BFBA
:1020A00001F0A9FCA06BE16B884201D3022D19D18C
:1020B0002A4639462046FFF78CFF606A002801D186
:1020C000012000E00020002807D12046243001F044
:1020D00019FB012801D101F085FC01F097FC0120DA
:1020E00007B0F0BD6846808A002803D101F08EFC5D
:1020F0000020F5E70298002804D1684601F03AFB79
:102100000120029001F082FC00F097FF01F073FCC7
:10211000606C401C002800D16064A06C401C00284A
:1021200000D1A06401F072FC05A9684601F02EFB05
:1021300000281AD12046FFF73DFF00280FD068463F
:10214000818A2046103001F09DFA2046FFF7EDFE0F
:1021500000F0C6FE0028A3D101F044FCA0E7204611
:10216000FFF7E3FE00F0BCFE9AE72046FFF7DDFE36
:1021700000F0B6FE0020B3E770B50546502001F030
:102180007EFC0446002C1CD0002060602060A06013
:10219000E060A0630120E06300202064401E6064D2
:1021A000A0644D20055520461030FFF703FE204661
:1021B0002430FFF7FFFD00231A4619462046FFF79B
:1021C00047FF002C02D172B600BFFEE7204670BD6B
:1021D00070B506463446002C02D172B600BFFEE749
:1021E00001F040FB616888420DD1E068401EE0606C
:1021F000E068002805D100231A4619462046FFF75B
:1022000027FF012500E00025284670BD70B5054672
:1022100001F0F1FBA86B002801D1012400E00024AB
:1022200001F0F4FB204670BD70B504460D462068F1
:1022300000280ED0216CE0684018E0606168E0681A
:10224000884201D32068E0602846226CE16803F0F0
:102250002BFB70BDFFB583B005460E4600200290F3
:102260002C46002C02D172B600BFFEE7002E02D130
:10227000206C002801D1012000E00020002802D1BC
:1022800072B600BFFEE700BF01F0B5FBA06B0028EF
:1022900037D0E76831462046FFF7C6FF069800288A
:1022A00019D1A06B401EA0632068002802D101F064
:1022B000D9FA60602069002801D1012000E00020E7
:1022C000002819D12046103001F01CFA012813D142
:1022D00001F088FB10E0E760606A002801D101206E
:1022E00000E00020002807D12046243001F00AFA3F
:1022F000002801D001F076FB01F088FB012007B037
:10230000F0BD6846808A002803D101F07FFB0020E1
:10231000F5E70298002804D1684601F02BFA012065
:10232000029001F073FB00F088FE01F064FB606C2A
:10233000401C002800D16064A06C401C002800D123
:10234000A06401F063FB05A9684601F01FFA0028AC
:1023500025D12046FFF75AFF00281AD02068002810
:1023600006D101F048FB606801F08DFA01F04EFBE8
:102370006846818A2046243001F084F92046FFF720
:10238000D4FD00F0ADFD002800D07DE701F02AFB70
:102390007AE72046FFF7C9FD00F0A2FD74E720466A
:1023A000FFF7C3FD00F09CFD0020A8E7F8B5064646
:1023B0000F463446002C02D172B600BFFEE701F092
:1023C00051FA6168884204D1E068401CE060012550
:1023D0000BE000233A4619462046FFF73BFF05462F
:1023E000012D02D1E068401CE0602846F8BD70B5C0
:1023F00005460E46002D01D0012000E000200028F7
:1024000002D172B600BFFEE7AE4201D8012000E063
:102410000020002802D172B600BFFEE70222002190
:102420002846FFF754FD0446002C00D0A663002C7C
:1024300002D172B600BFFEE7204670BDFFB583B083
:10244000064617461D463446002C02D172B600BF20
:10245000FEE70498002802D1206C002801D1012059
:1024600000E00020002802D172B600BFFEE7022D76
:1024700002D1E06B012801D1012000E000200028FA
:1024800002D172B600BFFEE7FDF72EFE0190A06BF1
:10249000E16B884201D3022D21D12A4620460499BE
:1024A000FFF797FDA06C401C002812D1606A00283D
:1024B00001D1012000E0002000280DD12046243069
:1024C00001F020F9002807D0002F05D00120386046
:1024D00002E0A06C401CA0640120029001E00020FA
:1024E00002900198FDF704FE029807B0F0BDF7B521
:1024F00082B0054616462C46002C02D172B600BFAB
:10250000FEE70398002802D1206C002801D10120A9
:1025100000E00020002802D172B600BFFEE7FDF700
:10252000E3FD0190A06B002822D020460399FFF71D
:102530007BFEA06B401EA063606C401C002812D183
:102540002069002801D1012000E0002000280DD1E1
:102550002046103001F0D6F8002807D0002E05D014
:102560000120306002E0606C401C6064012700E0E4
:1025700000270198FDF7BCFD384605B0F0BDF3B566
:1025800081B005462C46002C02D172B600BFFEE792
:102590000298002802D1206C002801D1012000E01F
:1025A0000020002802D172B600BFFEE7FDF79CFDB7
:1025B0000090A06B002807D0E76820460299FFF73B
:1025C00033FEE760012600E000260098FDF790FD4D
:1025D0003046FEBD70B50446002C02D172B600BF75
:1025E000FEE701F008FAA56B01F010FA284670BD6D
:1025F00070B504462546002D02D172B600BFFEE735
:1026000001F0F9F9A96BE86B461A01F0FFF93046C1
:1026100070BD0146002902D172B600BFFEE7886B8B
:10262000704710B5014600200BE0C2003C4BD218A9
:1026300052688A4204D10022C300394CE25002E0C1
:10264000401C0828F1D300BF10BD70B504462546D4
:10265000002D02D172B600BFFEE72846FFF7E1FF6A
:10266000286801F05FFA284601F05CFA70BD014667
:102670004C20405C70474C221154704701464D205D
:10268000405C70470146002902D172B600BFFEE7E8
:102690008A6B002A01D1012000E00020704701462A
:1026A000002902D172B600BFFEE78A6BCB6B9A425B
:1026B00001D1012000E00020704710B50246002043
:1026C0000BE0C300164CE358002B05D1C300E150CA
:1026D000C3001B195A6002E0401C0828F1D300BF58
:1026E00010BD70B505460E462C4601F084F9606CAD
:1026F000401C002800D16064A06C401C002800D160
:10270000A06401F083F9A06B002804D13146204673
:10271000243000F0DCFF2046FFF707FC70BD00000E
:102720004C010020F8B504460D4616461F46002011
:102730000090A5802461B5420CDCF01B218B8842FF
:1027400002DB0120009011E0211DF9480068FFF72D
:102750004DFB0BE0BE4204DABD4202DB01200090DB
:1027600004E0211DF3480068FFF740FB0098F8BD26
:10277000F0B585B005460E4617461C46002003906E
:10278000ED480068002823D00096684687800295AF
:10279000002C15D101F069F8012808D10023694601
:1027A000E5480A9A0068FFF753FC039010E0002305
:1027B0001A466946E0480068FFF74AFC039007E0C4
:1027C000002322466946DC480068FFF737FE039085
:1027D000039805B0F0BDFEB52CE0D6480068C0688F
:1027E0000588D4480068C068C468201DFFF719FB3D
:1027F0002046616A8847E06901281BD1208B401977
:1028000086B2AE4207DDA6802461211DC94800685A
:10281000FFF7ECFA0EE0002003462A46014600903E
:102820002046FFF7A5FF0746002F02D172B600BF72
:10283000FEE700BFBF4800680068002801D1012002
:1028400000E000200028C8D0BA4800680190B848CD
:102850000068B8490860B64901980860FEBD70B5C7
:10286000044600F05FFE0546B4480088854206DA5B
:10287000B2480088FFF7AFFF0120206001E0002090
:102880002060AE480580284670BD70B586B05EE019
:10289000059C6069002801D1012000E0002000288B
:1028A00002D1201DFFF7BDFA02A8FFF7D8FF0546A9
:1028B0000398002806D001282BD002282AD003280C
:1028C00043D13EE06846008A228B801881B2684678
:1028D000038A2A462046FFF725FF012818D1204603
:1028E000616A8847E069012812D10020009068469B
:1028F000008A218B401882B2002319462046FFF738
:1029000037FF0646002E02D172B600BFFEE700BFB9
:102910001CE01BE06846008A2083208B002801DD34
:10292000012000E00020002802D172B600BFFEE7BF
:10293000208B401981B22B462A462046FFF7F2FE33
:1029400004E0204601F0EEF800E000BF00BF0023E5
:102950001A4603A978480068FFF77CFC002897D145
:1029600006B070BDF8B505460F4672480068C068ED
:10297000C468201DFFF755FAE069012818D1208BA3
:10298000401981B22B463A462046FFF7CBFE01287C
:102990000ED1002003462A46014600902046FFF74C
:1029A000E7FE0646002E02D172B600BFFEE700BF6A
:1029B0002046616A8847F8BDF8B504460E4600F027
:1029C0003CFB6846FFF74BFF05460098002817D1EF
:1029D000002E08D1AC4206DC00F082FA29462046DF
:1029E000FFF7C0FF0EE0601B81B253480068FFF79D
:1029F00078FE00F075FA002804D100F0F3FF01E042
:102A000000F06EFAF8BD01464A4A12681268002AC0
:102A100001D1012200E000220A600A68002A04D1E4
:102A2000444A1268D268108800E00020704708B558
:102A300000BF6846FFF7E7FF044620460099FFF70E
:102A4000BBFFFFF722FFF4E710B500F0D4FF3A48D0
:102A50000068002812D13A48FFF7ACF93948FFF76F
:102A6000A9F93748334908603648314908600022DF
:102A70000C210520FFF72BFA2F49086000F0C6FF54
:102A800010BD1FB50024FFF7DFFF2B4800680028AA
:102A90000CD0002002230190029000930390034683
:102AA000502229A12A4800F0C2F80446002C02D185
:102AB00072B600BFFEE7204604B010BDFFB581B07E
:102AC00006460D461746002D01D1002411E02820AE
:102AD00000F0D5FF0446002C0BD0FFF7B5FF2660B1
:102AE0002583E761049820620A986062201DFFF741
:102AF0006EF9002D01DD012000E00020002802D148
:102B000072B600BFFEE7204605B0F0BD70B50446C2
:102B1000264600F070FF7069002801D1012000E016
:102B20000020012105464D4000F070FF284670BD91
:102B30001400002010000020180000201C000020BD
:102B40008C010020A0010020546D72205376630098
:102B50002F2A000801460A46106A704710B5002463
:102B600006E014216143FE4A8818FFF723F9641C2C
:102B7000052CF6D3FB48FFF71DF9FB48FFF71AF9C0
:102B8000FA48FFF717F9FA48FFF714F9F948FFF781
:102B900011F9F448F8490860F348F849086010BD95
:102BA000F8B504460F461546002608E0B95D2046F4
:102BB00034308155B85D002800D102E0761C052E26
:102BC000F4D300BF002138200155052D00D3042582
:102BD000E5626564201DFFF7FAF820461830FFF71C
:102BE000F6F824610520401B20836462F8BD70B5AF
:102BF00005460E46482000F042FF0446002C14D043
:102C0000002E03D1A80000F03AFF00E03046206318
:102C1000206B002804D1204600F084FF002404E04B
:102C2000A900A522206B02F051FE204670BDFFB521
:102C300083B016460C9D0398002802D172B600BFDF
:102C4000FEE7052D01D2012000E00020002802D17E
:102C500072B600BFFEE730460E99FFF7C8FF044684
:102C6000002C62D0701E8000216B08180290029820
:102C7000C008C000029002984007400F002801D110
:102C8000012000E00020002802D172B600BFFEE75C
:102C900000962A4620460F9B0499FFF781FF069A6B
:102CA0000399029800F06AFE20600D98002801D078
:102CB0000D98046000F09FFEB1480068401CB049C8
:102CC0000860B0480068002808D1AE480460084693
:102CD000006801280DD1FFF741FF0AE0AA4800680B
:102CE000002806D1A7480068C06AA84201D8A548B4
:102CF0000460A6480068401CA449086008460068B3
:102D0000E063A349E06A0968884202D9A049E06A01
:102D100008601422E16A5143914A8818211DFFF787
:102D200059F8012700F072FE01E00027FF43012F50
:102D30000AD195480068002806D092480068C06A09
:102D4000A84201D200F04EFE384607B0F0BD70B583
:102D5000054600F050FE002D02D18A48006800E0D0
:102D600028460446201DFFF75CF8A06A002803D01F
:102D700020461830FFF755F8211D7D48FFF72AF847
:102D800084480068401C8349086080480068401CF3
:102D90007E49086000F03AFE7B480068002805D0B4
:102DA00078480068844201D100F01CFE70BDF8B57F
:102DB000002779480068002879D178480088401CAD
:102DC0007649088008460688002E30D16A4909688D
:102DD0000968002901D1012100E00021002902D168
:102DE00072B600BFFEE76449086864490968624A30
:102DF0001160624908606A490968491C684A1160A3
:102E00005D4909680968002901D1012100E000211C
:102E1000002904D00021C943624A118006E05649C6
:102E20000968C968CC68A1885E4A118000BF5D4806
:102E3000008886423DDB00BF4F48006800680028DC
:102E400001D1012000E00020002804D00020C04370
:102E5000544908802CE048480068C068C468A588C8
:102E6000AE4202DA4F48058022E0201DFEF7D9FF6E
:102E7000A06A002803D020461830FEF7D2FF44494C
:102E8000E06A0968884202D94149E06A0860142270
:102E9000E16A5143324A8818211DFEF79BFF3949E8
:102EA000E06A0968C96A8842C6D30127C4E70BE013
:102EB00000BF34480068C06A1421484328490858B4
:102EC000012806D9012704E037480068401C36492C
:102ED000086036480068002800D001273846F8BD51
:102EE00070B500252C480068002802D172B600BFDA
:102EF000FEE700F080FD28480068401E2649086073
:102F000008460068002875D11D480068002871D067
:102F100022E01648C068C46820461830FEF781FFDA
:102F2000201DFEF77EFF1A49E06A0968884202D92F
:102F30001749E06A08601422E16A5143084A881878
:102F4000211DFEF747FF0F49E06A0968C96A8842F8
:102F500002D301201549086004480068002827E0D2
:102F6000B4010020180200202C02002040020020A2
:102F700054020020680200202400002028000020C5
:102F800030000020200000203C00002050000020E5
:102F9000380000202C0000204000002034000020D9
:102FA0004C00002054000020440000204800002075
:102FB00001D1012000E000200028AAD0F8480068D4
:102FC000002810D00BE0FFF7F2FE002802D001200D
:102FD000F4490860F2480068401EF1490860F04872
:102FE00000680028EFD1EF480068012802D10125D0
:102FF00000F0F8FC00F00AFD284670BD10B504464C
:10300000E94800688480E9480088844207DAE64895
:103010000168091DE6480068FEF7E8FE0CE0E2489A
:103020000168091DE3480068FEF7E0FEE2480088F9
:10303000844201DAE048048010BDE0480068401C8A
:10304000DE4908607047FEB504460E460020019038
:10305000002C02D172B600BFFEE7002E01D0012085
:1030600000E00020002802D172B600BFFEE7FFF7A3
:10307000E4FFCE48008800902088801985B221881E
:103080000098814208DD2088A8420DDD0098854225
:103090000ADD0120019007E02088A84202DC0098A8
:1030A000854201DD0120019025800198002807D08C
:1030B000BD480068001DFEF7B4FE2846FFF79EFFDE
:1030C000FFF70EFF0746002F01D100F08BFCFEBD7D
:1030D00070B504460026002C10DDFFF7AEFFB348A4
:1030E0000088001985B2B0480068001DFEF799FEFF
:1030F0002846FFF783FFFFF7F3FE0646002E01D1B7
:1031000000F070FC70BD70B5044600F074FC002C3B
:1031100002D1A548006800E020460646F56A00F0A6
:1031200075FC284670BDFEB507460D460020009090
:10313000052D01D2012000E00020002802D172B646
:1031400000BFFEE7052D00D3042500F054FC002F3E
:1031500002D19548006800E038460446666CAE42ED
:1031600044D0B5420BD99048006884420DD08E48B7
:103170000068C06AA84208D80120009005E08A488B
:103180000068844201D101200090E06A0190E16A68
:10319000606C884200D1E56265640520401B208395
:1031A0006169142201985043854A8018814201D1F7
:1031B000012000E00020002812D0201DFEF731FE83
:1031C0008049E06A0968884202D97E49E06A08605D
:1031D0001422E16A51437A4A8818211DFEF7FAFD4C
:1031E0000098012801D100F0FDFB00BF00F00EFCAB
:1031F000FEBD10B571480068002803D00120694960
:10320000086040E00020674908606748006800687F
:1032100065490968096B884205D8634801683431FB
:10322000006800F08AFD0BE066480068002802D1C3
:1032300072B600BFFEE763480068401E614908603F
:1032400060480068142148435D490858002801D1AE
:10325000012000E000200028E6D15A490968142224
:103260005143574A8818416849684160014608310E
:1032700042688A4202D14168496841604168C96830
:10328000494A116000BF10BD70B5054600F0B3FBA0
:10329000002D02D14448006800E028460446201D65
:1032A000FEF7BFFDA06A002803D020461830FEF7C5
:1032B000B8FD211D4448FEF78DFD00F0A7FB3A48FC
:1032C0000068844212D141480068002802D000F012
:1032D00089FB0BE03C4800683D490968884203D1FE
:1032E00000203149086001E0FFF783FF70BD10B591
:1032F000024600201146002A02D172B600BFFEE746
:10330000314C4B69A34201D1012300E00023002B83
:1033100011D0304C8B6AA34201D1012300E000237D
:10332000002B08D18B6A002B01D1012300E0002380
:10333000002B00D0012010BD70B505462C46002D95
:1033400002D172B600BFFEE7002C27D016480068F5
:10335000844223D000F04FFB2046FFF7C8FF01282E
:103360001AD1201DFEF75DFD1649E06A0968884202
:1033700002D91449E06A08601422E16A5143104AF4
:103380008818211DFEF726FD0749E06A0968C96A09
:10339000884201D300F026FB00F038FB70BD00002E
:1033A00044000020480000202000002034000020BD
:1033B00028000020240000205400002040000020AD
:1033C000B401002038000020680200203C000020EA
:1033D0003000002040020020F8B5054600262C46AB
:1033E000002D02D172B600BFFEE7FCF77DFE074656
:1033F0002046FFF77CFF012823D1FC480068002805
:103400001AD1FB49E06A0968C96A884200D30126DB
:10341000201DFEF706FDF749E06A0968884202D9D7
:10342000F449E06A08601422E16A5143F24A8818BC
:10343000211DFEF7CFFC04E021461831EF48FEF7CE
:10344000C9FC3846FCF754FE3046F8BD10B50446BA
:10345000206B00F067FB204600F064FB10BD70B5E8
:1034600025E0FFF7EAFDE6480068002801D10120C9
:1034700000E000200546FFF733FD002D17D100F0D6
:10348000BAFADF48C068C468201DFEF7CAFCDD48F0
:103490000068401EDB490860DB480068401EDA49CE
:1034A000086000F0B3FA2046FFF7D0FF00BFD6480F
:1034B00000680028D5D170BD00BFFFF7D0FFCE480F
:1034C00000680128F9D900F08DFAF6E71FB5002051
:1034D00000900190029003468022CCA10390CD4839
:1034E000FFF7A5FB0446012C02D1FFF7CAFA0446F8
:1034F000012C09D172B60120C74908600020C749D4
:10350000088000F056FA04E0002C02D172B600BF29
:10351000FEE71FBD10B572B60020BF49086000F07D
:1035200060FA10BD10B500F066FABC48048800F0DF
:103530006DFA204610BD70B5FCF7D6FD0546B748BC
:1035400004882846FCF7D4FD204670BDAD480068CD
:1035500070470146002002E0491C421C90B20A78E4
:10356000A52AF9D080087047F7B582B006460C4608
:1035700000252068002842D0204641684968416003
:103580000146083142688A4202D141684968416077
:103590004168C968019100BF20464168496841609F
:1035A0000146083142688A4202D141684968416057
:1035B0004168CF686801375038463430690189194D
:1035C0004860F86B69018919886069018919049854
:1035D0000873F86A690189190861786C69018919A9
:1035E00048610020690189198861386BFFF7B1FFD4
:1035F0006901891988836D1C01988742CCD12846BE
:1036000005B0F0BDF7B50546164600240527FFF7BF
:1036100014FD7C490198096888422FD300BF7F1EA2
:1036200014227A43744BD118620150190122FFF71A
:103630009BFF0419002FF2D1610148190222784939
:103640000968FFF791FF04196101481902227549C1
:103650000968FFF789FF04196101481904226849C4
:10366000FFF782FF04196101481903226E49FFF731
:103670007BFF0419002E01D000203060FFF730FCE2
:103680002046FEBD70B505460C46002D02D172B62F
:1036900000BFFEE75648016818312846FEF7A6FB32
:1036A00053480068001DFEF7BCFB6048844206D109
:1036B0004F480168091D5C48FEF78CFB06E057483F
:1036C0000088001986B23046FFF798FC70BD70B5CF
:1036D00004460D46002C02D172B600BFFEE74448F6
:1036E000016818312046FEF775FB41480068001D4F
:1036F000FEF797FB49480088401986B23046FFF72D
:103700007DFC70BD70B50646F068C468002C02D11F
:1037100072B600BFFEE720461830FEF782FB334842
:103720000068002813D1201DFEF77BFB3149E06AB9
:103730000968884202D92F49E06A08601422E16AC8
:1037400051432D4A8818211DFEF744FB04E0214611
:1037500018312A48FEF73EFB2549E06A0968C96A24
:10376000884204D3012501203149086000E000258A
:10377000284670BD002802D172B600BFFEE72D4971
:1037800009680160254909888180704770B5044641
:103790000D46002C02D172B600BFFEE7002D02D10B
:1037A00072B600BFFEE700F026F91C4802882888A0
:1037B0001E49884201D100263FE01E492068096861
:1037C000884204D0A088904201DC012635E0A08820
:1037D000101A298888422FDA2888A188511A401A9D
:1037E00028802046FFF7C6FF002626E04000002084
:1037F0002000002038000020B401002040020020FA
:1038000054020020300000202C00002049444C4588
:1038100000000000B93400083C0000203400002003
:10382000240000202800002068020020FFFF000084
:10383000480000204C000020012600F0E7F8304648
:1038400070BD01203F49086070470146002902D041
:103850000A46106C00E000207047002801D00246A4
:103860001164704738490868704738490968002969
:1038700001D1002006E036490968002901D1012064
:1038800000E00220704770B505462C46002D34D06C
:103890002D49E06A0968C96A88422ED22A48006820
:1038A000808D0521081A20831422E06A5043294A9A
:1038B00080186169814201D1012000E000200028C8
:1038C00017D0201DFEF7ADFA1F480068C06AE062FD
:1038D0002149E06A0968884202D91F49E06A086004
:1038E0001422E16A51431B4A8818211DFEF772FA1F
:1038F00003E015480068C06AE06270BD70B5054617
:103900002C46002D1CD0616CE06A884218D0201D26
:10391000FEF787FA606CE062A08D0521081A20830B
:103920000D49E06A0968884202D90B49E06A0860DB
:103930001422E16A5143074A8818211DFEF74AFA0A
:1039400070BD000048000020200000203C00002046
:1039500040000020B40100203800002039480068F1
:10396000401C002801D1012000E00020002802D1E5
:1039700072B600BFFEE772B600BFFEE7001F01236C
:103980001B060360001F0160001F2F4B03601438EB
:10399000026020387047704710B57D21C9002B4860
:1039A000006801F06BFF401E29494861072008614B
:1039B00010BD10B52748006AFF21090408432549B6
:1039C00008620846006AFF21090608432149086287
:1039D000FFF7E2FF00201B490860FCF775FB0020A1
:1039E00010BD7047012000071A494860BFF34F8F90
:1039F000BFF36F8F704772B612480068401C1149C0
:103A00000860BFF34F8FBFF36F8F70470D4800689A
:103A1000401E0C49086008460068002800D162B6C4
:103A2000704710B5FCF760FB0446FFF7C0F90028AB
:103A300003D001200007074948602046FCF758FBE7
:103A400010BD0000580000205D39000898000020DB
:103A500000E000E000ED00E0434AD008C000434A27
:103A600010600022414B5A60414A424B5A6000228A
:103A70001A6001463E4A4A601A460A607047F8B525
:103A8000044600200090FFF7D8FA3B480068002861
:103A900004D1FFF7E1FF012037490860002C09D06D
:103AA00008346007400F002804D06007400F082149
:103AB000081A0419002C31D02D4884422ED22B4FE5
:103AC0003846056801E02F462D686868A04202D29A
:103AD00028680028F7D1274885421FD03868083069
:103AE0000090286838606868001B102810D92E19CB
:103AF0006868001B70606C6071681C4800E00068BA
:103B0000026852688A42FAD302683260066000BFD7
:103B10001A4968680968081A18490860FFF7E0F947
:103B20000098F8BD70B506463546002E16D0083D03
:103B30002C46FFF782FA61680C4800E000680268D2
:103B400052688A42FAD30268226004600B496068B6
:103B50000968401809490860FFF7C2F970BD0748B5
:103B60000068704770470000840200205C0000205D
:103B7000F80F000064000020700000206C0000209E
:103B80008BA48EA590A001F0F1FE98A001F0EEFEAE
:103B9000204601F0EBFE99A001F0E8FE284601F076
:103BA000E5FE97A001F0E2FE96A001F0DFFE00F036
:103BB000F0FA40E0A2480078002839D100230A2218
:103BC0001946A0480068FEF745FB012807D10C20E4
:103BD00001F0CEF801209C49087001F042FD9A489E
:103BE0000078002804D099480068401C9749086074
:103BF0009648006819280BDB93480078002807D006
:103C00000C2001F0C2F80020904908608E4908702D
:103C10008F480078002807D100210C2001F0A0F87F
:103C20000C2001F0A5F803E001210C2001F098F828
:103C30000A20FFF74DFABDE7002421E000F099FDCE
:103C40000446002C08DD204600F0FEF914208149CE
:103C500008600020804908607F480068401C7E4959
:103C600008607C490968884207D100F092FA002078
:103C700079490860C820774908600A20FFF728FAC8
:103C8000DCE704E001F0FDF80A20FFF721FAF9E78C
:103C90008EB000210120FEF7AAFB6A49086004A843
:103CA000FCF753FD7D21C900059801F0E7FD0446AE
:103CB000601E6A49884200D90CE0601E684948616C
:103CC0000321081F00F03CF80020654988610720A7
:103CD000086100BF01F023F900F0D8FD00F00CFEF0
:103CE00001F093F800205F4A0423029000930192B0
:103CF0000390034680225CA15C48FEF798FF0020F9
:103D00005B4A0323029000930192039003468022B2
:103D100058A15A48FEF78BFF0020594A0123029010
:103D20000093019203900346802256A15748FEF764
:103D30007EFFFFF7CBFB00BFFEE772B600BFFEE7DA
:103D400010B5002819DA524A03071B0F083B9B08DD
:103D50009B00D2588307DC0EFF23A3409A438B07B6
:103D60001B0E8407E40EA3401A43494B0407240F9B
:103D7000083CA408A4001A5118E0464A03231B0279
:103D8000D21883089B00D2588307DC0EFF23A34080
:103D90009A438B071B0E8407E40EA3401A433D4B46
:103DA000032424021B198408A4001A5110BD00002A
:103DB0004D617220313120323031390031363A33A1
:103DC000373A3137000000000909467265655254E0
:103DD0004F5320372E362E3020666F722053544DAD
:103DE0003332463033300D0A0000000009094275B5
:103DF000696C6420646174653A2000002000000052
:103E00000D0A000009094465766963652056656EF0
:103E1000646F723A204E4A205A6548616920456CA9
:103E2000656374726963616C2045717569706D6555
:103E30006E7420436F2E2C4C74642E0D0A0000000B
:103E4000B2000020340100209400002090000020E7
:103E50002C010020880000208C000020FFFFFF00C4
:103E600000E000E07C0000206C656400833C0008FA
:103E7000800000204B65795363616E00393C000877
:103E800084000020434F4D3100000000813B0008BA
:103E90001CED00E000E100E00CB500200190009076
:103EA00011205F4908605F4840685E4948600846E5
:103EB00040684860084640687F21C90388435949E3
:103EC0004860084640680521C904084355494860D0
:103ED000084600680121090608435249086000BFEE
:103EE000504800680121490608400028F8D04D4894
:103EF0004068800880004B494860084640680221BD
:103F000008434849486000BF464840680C210840C3
:103F10000828F9D10CBD10B54248006801210843BA
:103F200040490860084640683F4908403D494860AC
:103F3000084600683D4908403A490860084600685C
:103F400001218904884337490860084640683F21B9
:103F500009048843334948600846C06A00090001E3
:103F6000C8620846006BFF21543188432D4908631D
:103F70000846406B40084000486300208860FFF717
:103F80008BFF10BDF8B5002500240026002725482A
:103F900040680C2108400546002D04D0042D06D0B1
:103FA000082D2AD107E022482249086029E020484C
:103FB0002049086025E01B4840680F21890408401B
:103FC0000446184840680321C90308400646A00C6F
:103FD000841C002E04D118486043164908600BE089
:103FE0001048C06A0007000F471C3946104801F00E
:103FF00045FC60430F49086003E00D480D49086027
:1040000000BF00BF07484068F021084000090B4985
:104010000D5C08480068E84006490860F8BD0000EB
:1040200000200240001002400CB8FFF8FFFFF6FE2F
:1040300000127A009800002000093D009C0000203A
:10404000704700BFFEE7000070B5044625464648AD
:10405000007800280ED0662D0BD100F036FF00202E
:1040600041490870082000F090FE40480068FFF7C2
:1040700063F970BD052D27D008DC012D3DD0022D40
:1040800040D0032D43D0042D6BD12AE0062D04D05F
:10409000072D41D0662D64D150E000F005FF344972
:1040A000087008460078032801D1002002E030485B
:1040B0000078401C2E4908700846007800F08EFEFB
:1040C000092000F055FE4CE028480068FFF7DCF8B6
:1040D000082000F04DFE01202349087000F0E7FEA3
:1040E0003FE024480078002806D1072000F040FE79
:1040F0001921012000F0A1F833E00A21012000F08D
:104100009CF82EE01621012000F097F829E01521F7
:10411000012000F092F824E0164800780121484080
:10412000144908700846007801F035FB1B21012076
:1041300000F083F86420FEF7CBFF12E0072000F0C8
:104140002FFE002803D06621012000F076F8092018
:1041500000F01BFE082000F018FE072000F015FEFE
:1041600000BF00BF00BF84E7B20000208400002031
:10417000B10000204701002010B50246537802200C
:1041800002E0145C6340401C4C1E8442F9DC18467B
:1041900010BD70B524205249087053204870592032
:1041A00088704E20C870432008712C20487131203F
:1041B00088712A20C87108214948FFF7DDFF0446AD
:1041C0002246E3171B0F9B181B110A2B06DA214608
:1041D000E3171B0F5B181B11303305E02046E31774
:1041E0001B0F1B181B113733DDB22246E3171B0FC1
:1041F0009B181B111B01E31A0A2B08DA2146E3174F
:104200001B0F5B181B111B01E31A303307E020461C
:10421000E3171B0F1B181B111B01E31A3733DEB208
:104220002F48057246720D202D4988720A20C872E7
:104230000C212B4800F070FF70BDF3B581B005462E
:104240002420274908700220487001208870084601
:10425000C570029808712A20487106212048FFF78E
:104260008BFF04462246E3171B0F9B181B110A2BDA
:1042700006DA2146E3171B0F5B181B11303305E0EC
:104280002046E3171B0F1B181B113733DEB22246E3
:10429000E3171B0F9B181B111B01E31A0A2B08DAEB
:1042A0002146E3171B0F5B181B111B01E31A303368
:1042B00007E02046E3171B0F1B181B111B01E31A15
:1042C0003733DFB206488671C7710D200449087282
:1042D0000A2048720A21024800F01EFFFEBD0000BD
:1042E0007C120020012803DB042801DCE04908607F
:1042F000704730B58BB000BF00BF01218804FCF7C8
:104300006EFB012001900221684601720321417277
:10431000002181720121C17201A9D648FBF786FFF5
:1043200002220021D348FCF70AF87D21C900D248B7
:10433000006801F0A3FA401E84B2611ECF4A5143C7
:1043400008467D21C90001F099FA85B20121C80211
:10435000FCF753FB002168460184418409940185E0
:1043600008A8817208A9C648FCF796FF7021684624
:1043700081810121C18104210182059502210183EE
:1043800000214183FF21013181830021C18303A9E1
:10439000BB48FDF77AF80121B948FDF702F8012181
:1043A000B748FDF724F80BB030BD1CB50121480417
:1043B000FCF715FB042000900121684601710021E3
:1043C00081710121C1710321417169460920C00633
:1043D000FBF72CFF04210920C006FBF7A6FF0121F3
:1043E0004804FCF7FCFA2020009001216846017186
:1043F000002181710121C1710321417169460920A8
:10440000C006FBF713FF20210920C006FBF78BFF36
:10441000FFF76FFF01214804FCF7E1FA0820009044
:10442000012168460171002181710121C1710321BF
:10443000417169460920C006FBF7F8FE08210920F2
:10444000C006FBF770FF01214804FCF7C8FA1020F2
:104450000090012168460171002181710121C17123
:104460000321417169460920C006FBF7DFFE1021D8
:104470000920C006FBF757FF1CBD10B5FFF795FFDD
:104480000120FFF72FFF10BD0DE07E49097849009C
:10449000415A7C4A127852007B4B995279490978EB
:1044A000491C784A1170774909780229EDDB704779
:1044B000F0B589B004460025002600270021704889
:1044C000FCF795FF00216E48FCF76BFF00210120EF
:1044D000C002FCF792FA7D21C9006748006801F02C
:1044E000CDF9401E85B2002C06D0012C07D0022C3D
:1044F00008D0032C0BD108E0604F093707E0E12713
:10450000BF0004E0FF27F53701E00A2700BF00BF26
:10451000691E794308467D21C90001F0AFF986B2D2
:104520000121C802FCF769FA002168460183418332
:104530000795018408A8817006A95148FCF7ACFED4
:104540007021684681800121C18004210181039688
:104550000221018200214182FF2101318182C18239
:1045600001A94748FCF791FF01214548FCF719FFD5
:1045700001214348FCF73BFF09B0F0BD3C4800680F
:10458000704710B520210920C006FBF7CCFE04219E
:104590000920C006FBF7C9FE10BD10B5FFF7F1FFFB
:1045A00010BD10B504210920C006FBF7BEFE00BFF8
:1045B00004210920C006FBF7B6FE00BF0421092034
:1045C000C006FBF7B2FE00BF10BDF8B506460F46A9
:1045D0000024354602E06804050C641CBC42FADB8A
:1045E0001EE00120C0032840002805D0102109202A
:1045F000C006FBF79AFE04E010210920C006FBF775
:1046000092FE08210920C006FBF78FFE00BF08219B
:104610000920C006FBF787FE00BF6804050C641C78
:10462000102CDEDBF8BD10B5174948880721FFF7CD
:10463000CCFF002406E06100134A505A0021FFF726
:10464000C4FF641E002CF6DA10BD10B508480068DF
:1046500004280BDC00210A48FCF7C9FEFFF7E3FF42
:10466000FFF79FFF01210648FCF7C1FE10BD0000C7
:10467000B40000200004004898000020DE03000081
:10468000002C0140BC000020B80000201CB5012116
:104690004804FCF7A4F99920000200900021684624
:1046A0000171032141710121C17169460920C006D0
:1046B000FBF7BCFDFF2101310920C006FBF733FEEB
:1046C000012109030920C006FBF72DFE0121C902C3
:1046D0000920C006FBF727FE0121C9030920C006F7
:1046E000FBF721FE01218804FCF779F938200090BE
:1046F000002168460171032141710121C1716946A0
:104700006448FBF793FD08216248FBF70CFE10217B
:104710006048FBF708FE20215E48FBF704FE1CBD45
:1047200010B50A20FEF7D4FC10BD10B500240CE033
:104730006000594A115A0920C006FBF7DAFD00282B
:1047400002D1601CC0B210BD641C042CF0DB042438
:104750000BE06000504A115A4E48FBF7CAFD002892
:1047600002D1601CC0B2EEE7641C072CF1DB002014
:10477000E9E710B549480078030001F001F90504A4
:104780002E414C577A00002045490870FFF7CDFFB5
:10479000444908700846007800281AD00846007876
:1047A000FF2816D008460078042807D0084600786D
:1047B000052803D008460078062803D1032037498E
:1047C000087009E00120354908706420FEF780FC7C
:1047D00002E00020314908704BE0002030490870A9
:1047E000FFF7A3FF3049087008460078002803D17E
:1047F00002202A49087002E001202849087038E0A8
:1048000001202749087027480078284908700020AF
:10481000224908702DE001202149087021480078C4
:104820002249087004201D49087022E0FFF77DFF2F
:104830001C490870084600781C490978884206D14E
:1048400000201749087004201449087010E015482A
:104850000078002809D10120114908706620134909
:10486000087000200D49087002E004200B49087010
:1048700000BF00BF0A480078002805D00020084982
:1048800008700A48007810BD0020FCE710B5FFF75B
:10489000FDFE10BD00040048C0000020CE00002036
:1048A000BF000020CF000020D0000020D100002059
:1048B0001CB501214804FCF792F84020009000212B
:1048C00068460171C17169460920C006FBF7AEFC5C
:1048D0001CBD1CB501214804FCF781F84020009064
:1048E000012168460171C1710321417169460920A6
:1048F000C006FBF79BFC1CBD1CB501214804FCF75E
:104900006EF8E0200090012168460171002181715C
:104910000121C1710321417169460920C006FBF7DD
:1049200085FC60210920C006FBF7FDFC80210920E1
:10493000C006FBF7FAFC1CBD10B5FFF7CAFF40210B
:104940000920C006FBF7EFFC20210920C006FBF779
:10495000EAFC00BF40210920C006FBF7E6FC00BFCF
:1049600020210920C006FBF7E0FC10BD10B5FFF7C1
:10497000B0FF20210920C006FBF7D7FC4021092009
:10498000C006FBF7D2FC00BF20210920C006FBF7C0
:10499000CAFC40210920C006FBF7C5FC00BF10BDC2
:1049A00010B50024FFF784FF40210920C006FBF763
:1049B000BAFC00BF20210920C006FBF7B4FC00BFF1
:1049C00007E0601CC4B2FA2C03DDFFF7CFFF002024
:1049D00010BD40210920C006FBF78BFC0028F0D158
:1049E00020210920C006FBF7A0FC0120F0E710B54C
:1049F00020210920C006FBF798FCFFF76AFF402141
:104A00000920C006FBF791FC00BF20210920C00649
:104A1000FBF789FC00BF20210920C006FBF785FCBD
:104A200010BD10B520210920C006FBF77EFCFFF762
:104A300050FF40210920C006FBF775FC00BF202174
:104A40000920C006FBF76FFC00BF20210920C0062B
:104A5000FBF76BFC10BD70B50446FFF73AFF202151
:104A60000920C006FBF761FC002520E080202040E3
:104A7000C011002805D040210920C006FBF753FCD7
:104A800004E040210920C006FBF74FFC6006040E3D
:104A900000BF20210920C006FBF745FC00BF2021F4
:104AA0000920C006FBF741FC00BF681CC5B2082DF9
:104AB000DCDB70BD70B505460024FFF7F9FE00266B
:104AC00018E020210920C006FBF72FFC00BF2021A1
:104AD0000920C006FBF727FC6006040E40210920D0
:104AE000C006FBF706FC002801D0601CC4B200BF62
:104AF000701CC6B2082EE4DB002D02D0FFF777FF52
:104B000001E0FFF78EFF204670BD70B5044600251A
:104B1000FFF712FF210A4900A031C8B2FFF79BFF3F
:104B2000FFF73EFFE0B2FFF796FFFFF739FFFFF711
:104B300003FFA120FFF78FFFFFF732FF0020FFF7F1
:104B4000B9FF0546FFF712FF284670BD70B5044651
:104B50000D46FFF7F1FE210A4900A031C8B2FFF768
:104B60007AFFFFF71DFFE0B2FFF775FFFFF718FFB1
:104B70002846FFF770FFFFF713FFFFF7F7FE00BFB0
:104B800000BF70BD70B505460C46164605E021789D
:104B90002846FFF7DBFF6D1C641C3046761E00289C
:104BA000F5D170BD70B505460C46164605E02846A1
:104BB0006D1CFFF7AAFF2070641C3046761E00288B
:104BC000F5D170BD10B5FF20FFF79FFF0446552CAF
:104BD00001D1012010BD5521FF20FFF7B7FFFF20B5
:104BE000FFF793FF0446552C01D10120F2E7002086
:104BF000F0E710B5002404E0FF212046FFF7A6FFF0
:104C0000641CFF2CF8DB10BDF0B505460C46CF1731
:104C10003F0F3F193F113F01CF1B06D10B46CF1766
:104C20003F0F7F183F117F1E05E00A461146D71738
:104C30003F0F7F183F1138460B46CC17240FE4185E
:104C4000241124010C1B02D10124E4030BE00A46C9
:104C5000CC17240FA418241124010C1B10273F1B70
:104C60000124E4033C412646002D07D142009D4B20
:104C70009A5A324343009B4CE25206E04200994B61
:104C80009A5AB2434300974CE252F0BDF0B5044645
:104C90000E4680250027002009E0611E4A00891881
:104CA000914A8918095C002900D07F1C401C032808
:104CB000F3DB012F13D1072E08D0601E42008018AD
:104CC000894A115C0120FFF79FFF48E0601E420007
:104CD0008018854A115C0020FFF796FF3FE0002016
:104CE00001E06D10401CB042FBDB601E410040182B
:104CF0007D49085C00280AD0621E5300D2180B467A
:104D0000995C7A4A12782A401046FFF77DFF601EB0
:104D10004100401874494018407800280BD0621EAA
:104D20005300D2180B46D2185178714A12782A4093
:104D30001046FFF769FF601E410040186A4940189D
:104D4000807800280BD0621E5300D2180B46D21870
:104D50009178684A12782A401046FFF755FFF0BD57
:104D6000421E654B99547047421E644B99547047DC
:104D700010B50446601E604A115C2046FFF786FFAE
:104D800001212046FFF7F0FF10BD10B504460721B2
:104D90002046FFF77BFF00212046FFF7E5FF10BD0F
:104DA0000146481E554A105C704710B500240BE0C0
:104DB0005248005D002803D0601CFFF7D9FF02E0D5
:104DC000601CFFF7E2FF641C0C2CF1DB10BD10B57A
:104DD0004B4801780120FFF7B9FE10BD10B504461D
:104DE0002046FFF765FB46480470FFF7F0FF10BD53
:104DF00010B50120FFF789FE414908700846007888
:104E0000042801DB0020087010BD10B5FFF735FB4A
:104E1000FFF7CBFFFFF7ECFF39480078FFF7DEFF25
:104E200010BD421E374B9954704710B504463648A2
:104E3000007800280BD0601E3049085C002806D09E
:104E4000601E2D4A115C2046FFF720FF03E007217A
:104E50002046FFF71BFF10BD10B5002408E02948CD
:104E6000005D002803D0611CC8B2FFF7DEFF641CA0
:104E70000C2CF4DB244800780121484022490870BA
:104E800010BD10B521480068322805DBFFF7E4FFAC
:104E900000201E49086004E01C480068401C1B49B3
:104EA0000860FFF7D2FB10BD15480078704710B5B9
:104EB000012407E0E0B20021FFF7B3FF2046FFF72F
:104EC00057FF641C0C2CF5DD10BD10B5012403E068
:104ED0002046FFF75AFF641C0C2CF9DD00F083FC20
:104EE00010BD0000B8000020DF000020DC00002022
:104EF000DD000020DE00002003010020CB12002096
:104F00000F010020BF12002010010020140100201A
:104F100010B502210920C006FBF705FA10BD00B547
:104F200089B001214804FBF75AFD01218803FBF7F2
:104F300064FD0320400200900221684601710321B4
:104F40004171002181710121C17169460920C006AA
:104F5000FBF76CF901214804FBF741FD02200090AA
:104F600001216846017103214171002181710121F4
:104F7000C17169460920C006FBF758F9FFF7C8FF61
:104F800001220921C806FBF7DAF901220A210920CA
:104F9000C006FBF7D4F9DB48FBF7A8FD4B20C001A6
:104FA000029000200390049005900C2006900020B1
:104FB000079002A9D348FBF700FE1B2108A8017047
:104FC000012141708170FCF79BF80122CE49CD4848
:104FD000FCF725F80121CB48FBF784FE03220021D2
:104FE0000120FCF774FFC949086000231A461946DE
:104FF000C6480068FDF72CF809B000BD70B504463E
:105000000D4629462046FBF71EFF00BF40212046E3
:10501000FCF739F80028F9D070BD10B5022109203D
:10502000C006FBF782F910BD70B504460D46FFF7C8
:10503000F4FFE1B2B348FBF706FF00BF4021B148DF
:10504000FCF721F80028F9D0FFF762FF204670BD79
:1050500010B5044600BF2021AA48FCF714F8002828
:10506000F9D0A848FBF7F3FE10BD70B505460C4615
:10507000A448854220D119E0A5480068401CA449F5
:105080000860084600680A280DD30020A14908706E
:10509000A1490870A1490860A1490860A1490860B8
:1050A0009B49086002E09620FEF712F899480078C4
:1050B0000028E1D1FFF7B1FF04E02178641C284605
:1050C000FFF79CFF20780028F7D18E48854201D158
:1050D000FFF71EFF012070BDF7B504460D462E46B2
:1050E0008848844206D100BF8A4800780028FBD156
:1050F000FFF793FF002705E03178761C2046FFF785
:105100007DFF7F1C02988742F6DB7E48844201D1F6
:10511000FFF7FEFE0120FEBD70B504460D460023DC
:10512000814A194679480068FDF794F819E07848F3
:105130000068401C76490860084600680A280DD3BC
:1051400000207449087074490870744908607449F3
:105150000860744908606E49086002E09620FDF717
:10516000B7FF6C4800780028E1D100231A461946A1
:1051700066480068FCF76CFF6A480068401C694993
:105180000860052802D9002068490870FFF745FF2C
:10519000002605E02178641C5A48FFF72FFF761C93
:1051A000AE42F7DBFFF7B4FE012070BD38B5082131
:1051B0005448FBF768FF002805D05248006A0821D0
:1051C00008435049086220214E48FBF75CFF002845
:1051D0007ED001204F4908704A48FBF738FEC4B220
:1051E000242C02D101204C4908704B48007800283B
:1051F0006FD04B4800680121C903084000284AD1FC
:10520000474800684910084000281ED00A2C10D0DA
:105210004348006888434249086008460088800483
:10522000800C43490C543E480068401C3C490860CF
:1052300031E03B4800680121C90308433849086050
:1052400008460068401E086025E00D2C12D1344845
:105250000068012189030843314908600846008835
:105260008004800C32490C542D480068401C2C49A5
:10527000086010E02A4800888004800C2C490C54F7
:1052800027480068401C2649086008460068312805
:1052900001D900200860224800680121C9030840A4
:1052A00000282DD023480068002829D00020194963
:1052B0000870194908701A4800888004800C174942
:1052C000086000201649086001201849087001E0B4
:1052D00011E011E000201349086000236A461946D6
:1052E00014480068FDF7AAF80098002808D00120AB
:1052F00000071149486003E000200649087038BDE6
:1053000000BFFCE70038014005010500180100203E
:105310002801002021010020200100203001002070
:105320001C01002024010020FFFF00002C010020B0
:10533000D71200203401002000ED00E010B5412814
:1053400003D10123F14C237002E00023EF4C2370C2
:10535000412903D10023EE4C237002E00123EC4CE1
:1053600023704E2A03D10123EA4C237002E000236C
:10537000E84C237010BD10B5412803D10123E64C41
:10538000237002E00023E44C2370412903D1002361
:10539000E24C237002E00123E04C23704E2A03D13B
:1053A0000123DF4C237002E00023DD4C237010BD8D
:1053B00010B5412803D10123DA4C237002E0002309
:1053C000D84C2370412903D10023D74C237002E02D
:1053D0000123D54C23704E2A03D10123D34C2370D3
:1053E00002E00023D14C237010BD70B50446A57CAB
:1053F000302D1DD1E57C322D04D0332D08D0342D35
:1054000012D10BE0A27EE17D607DFFF7D1FF0BE0C2
:10541000A27EE17D607DFFF7AEFF05E0A27EE17D2B
:10542000607DFFF78BFF00BF00BF00F0DCF904E0F8
:10543000BFA1C548FFF719FE70BD00BFFCE710B55E
:105440000446207A302803D10020C049087002E0C9
:105450000120BE49087000F0C6F910BD70B50546C0
:10546000BB48047A312C06D0322C0AD0332C0ED013
:10547000342C1AD112E00020AC490870A9490870F8
:1054800013E00120A9490870A64908700DE0012029
:10549000A64908700020A349087006E00020A3492F
:1054A000087001209F49087000BF00BFA848447AD7
:1054B000302C02D0312C08D103E001209A49087029
:1054C00003E000209849087000BF00BFA048C47ADC
:1054D000312C06D0322C0AD0332C0ED0342C1AD1D9
:1054E00012E000208E4908708B49087013E00120FB
:1054F0008B490870884908700DE0012088490870C0
:1055000000208549087006E00020854908700120C8
:105510008149087000BF00BF8D48047B302C02D049
:10552000312C08D103E001207C49087003E0002001
:105530007A49087000BF00BF8548847B312C06D0B3
:10554000322C0AD0332C0ED0342C1AD112E0002089
:10555000704908706D49087013E001206D490870AA
:105560006A4908700DE001206A4908700020674907
:10557000087006E000206749087001206349087040
:1055800000BF00BF7248C47B302C02D0312C08D140
:1055900003E001205E49087003E000205C490870C8
:1055A00000BF00BF6A48447C302C02D0312C14D19B
:1055B00009E000206549087066490870664908706E
:1055C0006649087009E00120604908706149087067
:1055D000614908706149087000BF00BF00F003F91D
:1055E00070BD10B5024600230024302A05DB392A9D
:1055F00003DC10463038C3B206E0412A04DB462AF9
:1056000002DC10463738C3B2302905DB392903DC08
:1056100008463038C4B206E0412904DB462902DCE2
:1056200008463738C4B218010019C0B210BDF8B529
:1056300004460D46667800276A1EA15CAA1EA05C7F
:10564000FFF7CFFF0746022002E0215C4E40401CDE
:10565000E91E8142F9DCBE4201D10120F8BD0020E3
:10566000FCE770B501253A48007824284CD13C4825
:1056700001783748FFF7DBFF0546002D00D170BDEC
:1056800033484478407853280CD1314880785928E1
:1056900008D12F48C0784E2804D12D4800794328DE
:1056A00000D101242A4840784D280CD12848807820
:1056B0004F2808D12648C078442804D124480079CE
:1056C000452800D103242248C078412808D1204829
:1056D00000794C2804D11E484079522800D1022478
:1056E000012C04D0022C0AD0032C0CD103E0184862
:1056F000FFF7B4FE07E01648FFF7A1FE03E01448E9
:10570000FFF773FE00BF00BF00BFB8E745010020F0
:1057100046010020430100204101002042010020F9
:105720003F0100203D0100203E0100203B01002000
:10573000466C617368206368616E6E656C2065728B
:10574000726F72210D0A00000038014047010020ED
:10575000D71200203C01002040010020440100201D
:105760003001002070B506460C461546002D04D0C9
:1057700001213046FFF755FB03E000213046FFF7DB
:1057800050FB002C03D03046FFF7F2FA02E030461F
:10579000FFF7FBFA70BD10B50446002C11D00022B3
:1057A00001210B20FFF7DEFF002211460A20FFF740
:1057B000D9FF012024490870244908702449087041
:1057C00010E0002211460B20FFF7CCFF0022012140
:1057D0000A20FFF7C7FF00201B4908701B4908700B
:1057E0001B49087010BD10B51A480078FFF7D3FFA9
:1057F00015480278184801780220FFF7B3FF1748D0
:105800000278174801780120FFF7ACFF10480278B2
:10581000144801780620FFF7A5FF134802781348C3
:1058200001780520FFF79EFF0848027810480178AC
:105830000420FFF797FF0F4802780F4801780320F4
:10584000FFF790FF10BD00003C0100204001002048
:1058500044010020470100203B0100203E010020C0
:105860003D010020430100204601002045010020A9
:105870003F010020420100204101002030B50B46CD
:10588000014600202022012409E00D46D5409D421A
:1058900005D31D469540491B2546954040191546A0
:1058A000521E002DF1DC30BD03460B439B0703D095
:1058B00009E008C9121F08C0042AFAD203E00B78D5
:1058C0000370401C491C521EF9D27047D2B201E04D
:1058D0000270401C491EFBD270470022F6E710B54B
:1058E00013460A4604461946FFF7F0FF204610BD4E
:1058F000064C0125064E05E0E36807CC2B430C3C23
:1059000098471034B442F7D3FAF7D8FBD8590008B7
:10591000F859000870B58C180578401C6B075B0FB0
:1059200001D10378401C2A1106D10278401C03E003
:1059300006780E70401C491C5B1EF9D12B0705D45C
:105940000023521E0DD40B70491CFAE70378401C4B
:10595000CB1A921C03E01D780D70491C5B1C521E73
:10596000F9D5A142D8D3002070BD000010B5024A7D
:10597000024900F022F810BD29500008480100201B
:1059800030B47446641E2578641CAB4204D3635D56
:105990005B00E31830BC18471D46F8E702E008C872
:1059A000121F08C1002AFAD170477047002001E099
:1059B00001C1121F002AFBD17047F8B516460F46E9
:1059C0000446002503E03946B047641C6D1C20786E
:1059D0000028F8D12846F8BDF8590008000000203A
:1059E0004C01000014590008585A00084C010020CE
:1059F000C4150000AC590008412D01020304040540
:105A0000440607080923FFFF1AAA010110031AF828
:105A10000FF3E803846CDC02B99C6A0164296639DF
:105A200010121012081B800807F2202C9A562E3BE9
:105A30002A053C200B0A0B0C0D0E0F10111213221D
:105A40001422152216221743181912062C010601DA
:085A500001695F01350000004F
:04000005080000B53A
:00000001FF
