:020000040800F2
:10000000201F002039010008C1300008C33000085B
:1000100000000000000000000000000000000000E0
:100020000000000000000000000000001B2A000883
:100030000000000000000000F7000008A72A0008E8
:100040004B010008000000004B0100084B010008B4
:100050004B0100084B0100084B0100084B01000850
:10006000000000004B0100084B0100084B01000894
:100070004B0100084B0100084B0100080000000084
:100080004B01000800000000000000004B010008C8
:100090004B0100084B0100084B0100084B01000810
:1000A0004B0100084B0100084B0100084B01000800
:1000B0004B0100080348854603F040F8004800471C
:1000C000B92C0008201F0020064B19680868203052
:1000D00080F30988022080F314883FBCAE4662B6E4
:1000E00000BD000020000020EFF3108072B67047C2
:1000F00080F310887047EFF309800E4B1A682038A0
:100100001060F0C044464D4656465F46F0C008B504
:1001100072B602F0C4F862B60CBC11680868103000
:10012000F0C8A046A946B246BB4680F309882038ED
:10013000F0C81847200000200448804704480047C2
:10014000FEE7FEE7FEE7FEE7FEE7FEE7972F000883
:10015000B500000810B504460920C006844209D144
:100160000121480400F095FB00210120400400F02B
:1001700090FB30E06E48844208D10121000200F07B
:1001800088FB0021200200F084FB24E069488442BF
:1001900008D10121000200F07CFB0021200200F0C8
:1001A00078FB18E06448844209D10121080500F079
:1001B00070FB00210120000500F06BFB0BE05F48A5
:1001C000844208D10121880500F063FB0021012051
:1001D000800500F05EFB10BDF0B50A46002100234B
:1001E000002400BF3DE001258D402B4615681D40D1
:1001F0002C469C4234D11579012D02D01579022D5F
:1002000016D185684F000326BE40B54385605579F9
:100210004E00B540866835438560858801268E404E
:10022000B5438580858896798E40B6B23543858002
:1002300005684F000326BE40B543056015794E00A2
:10024000B540066835430560C5684F000326BE40CB
:10025000B543C560D5794E00B540C6683543C56025
:10026000491C1029BFD3F0BD35490160002101713F
:100270000121417100218171C171704708B50122CE
:1002800012040092009A0A430092009AC261C1616E
:10029000009AC261C2690092C269009208BD02461A
:1002A0000020138A0B40002B01D0012000E0002029
:1002B00070470146088A704702460020938A0B4027
:1002C000002B01D0012000E0002070470146888A01
:1002D00070478161704701857047002A01D08161B4
:1002E00000E00185704781827047F0B5002300244B
:1002F0004D07EE0E1546B5402B46CD10AE00054617
:100300002035AD594E07F70E0F26BE40B543CE102F
:10031000B60007462037BD51CD10AE003D46AD5961
:100320001D432C46CD10AD003E467451F0BD00007B
:100330000004004800080048000C00480014004871
:10034000FFFF0000FD48006801210843FB490860E9
:1003500008464068FA490840F8494860084600687D
:10036000F8490840F54908600846006801218904F9
:100370008843F2490860084640683F2109048843E1
:10038000EE4948600846C06A00090001C862084694
:10039000006BFF2154318843E84908630846406BED
:1003A0004008400048630020886070470021E34A0D
:1003B000917011468870704710B5024600210023E5
:1003C00000205111002902D1DC4C23680BE00129E7
:1003D00002D1DA4C236A06E0022902D1D74C636AC3
:1003E00001E0D64C636BD106C90E01248C401C4041
:1003F000002C01D0012000E0002010BD38B5002005
:1004000000900024002500BF1120FFF7D5FF05460E
:100410000098401C0090052109030098884201D0F3
:10042000002DF1D01120FFF7C7FF002801D00124D3
:1004300000E00024204638BD01460020BF4A106875
:10044000F82302469A431046CA001043BB4A106084
:100450007047002806D0B949096801221143B74AFC
:10046000116005E0B549096849084900B34A1160BF
:10047000704701460020B14A506BF82302469A4368
:100480001046CA001043AD4A50637047002806D09A
:10049000AA49496B01221143A84A516305E0A749C3
:1004A000496B49084900A54A51637047002806D0A6
:1004B000A249496B04229143A04A516305E09F4938
:1004C000496B042211439D4A516370479B49096A55
:1004D00049084900994A11621146096A0422914368
:1004E000964A11621146096A0143116270479349A5
:1004F000096A18229143914A11621146096A01431F
:1005000011627047002806D08C49496A01221143C4
:100510008A4A516205E08949496A49084900874A7F
:1005200051627047854A52683D231B049A43834BAE
:100530005A601A46526803460B431A437F4B5A606F
:100540007047002807D07D4909680122120611432F
:100550007A4A116006E0794909680122120691433E
:10056000764A1160704701460020744AD06A00093B
:10057000000102460A431046704AD06270470028C4
:1005800007D06E4909680122D20411436B4A1160F9
:1005900006E06A4909680122D2049143674A116062
:1005A00070476649C871704701460020634A506829
:1005B0008008800002460A431046604A5060704737
:1005C0005E4840680C2108407047014600205B4AA5
:1005D0005068F02302469A43104602460A431046EA
:1005E000564A5060704701460020544A506807231D
:1005F0001B0202469A43104602460A4310464F4ADF
:10060000506070474D4949680122920391434B4A1B
:1006100051601146496882B21143484A51601146FF
:10062000096B92159143454A11631146096B020CFF
:100630001143424A116370474049096B402291437C
:100640003E4A11631146096B0143116370473B49F0
:10065000096B10229143394A11631146096B01431A
:10066000116370473549096B89088900334A116362
:100670001146096B014311637047FEB5044600251E
:10068000002600200190009000272C4840680C2193
:1006900008400546002D04D0042D05D0082D28D192
:1006A00005E02948206027E02748206024E023480F
:1006B00040680F218904084006462048406801210F
:1006C000090408400190B00C861C0198002803D151
:1006D0001E48704320600BE01848C06A0007000FF6
:1006E000401C00901848009902F0EDFC7043206017
:1006F00002E01548206000BF00BF10484068F021AC
:10070000084005462D091248475D2068F8406060A2
:100710000A48406807210902084005462D0A0C488E
:10072000475D6068F840A0600448006BFF2101311C
:100730000840884210D00748E0601BE000100240EB
:100740000CB8FFF8FFFFF6FE00127A0000093D002A
:1007500000000020809FD500754840680121890372
:100760000840884203D0A0684008E06002E0A0682A
:100770008008E0606E48006B40210840402802D0AD
:100780006C48206102E00120C00320616848006BD2
:1007900010210840102802D06748606101E02068FD
:1007A00060616348006B8007800F002802D1A06859
:1007B000A06119E05E48006B8007800F012802D11C
:1007C0002068A06110E05A48006B8007800F022863
:1007D00002D18003A06107E05548006B8007800FBD
:1007E000032801D15448A061FEBD5149096A014363
:1007F0004F4A11627047002807D04D49096A01220B
:10080000D20311434A4A116206E04949096A0122AA
:10081000D2039143464A11627047002807D04449E9
:10082000096A012212041143414A116206E040495B
:10083000096A0122120491433D4A1162704700295E
:1008400005D03B4A52690243394B5A6104E0384AA9
:1008500052698243364B5A617047002905D0344AA9
:1008600092690243324B9A6104E0314A92698243B1
:100870002F4B9A617047002905D02D4AD269024357
:100880002B4BDA6104E02A4AD2698243284BDA61B1
:100890007047002905D0264A926A0243244B9A6287
:1008A00004E0234A926A8243214B9A6270470029EE
:1008B00005D01F4AD26802431D4BDA6004E01C4A8F
:1008C000D26882431A4BDA607047002905D0184A73
:1008D00012690243164B1A6104E0154A12698243F9
:1008E000134B1A617047002905D0114A527A02430E
:1008F0000F4B5A7204E00E4A527A82430C4B5A72E2
:1009000070470B48406A01210906084308494862BC
:10091000704701460020064A92680A40002A01D02A
:10092000012000E0002070470149887270470000F4
:10093000001002401280000000127A0010B5044638
:10094000F648844209D101218803FFF7B0FF002156
:1009500001208003FFF7ABFF0BE0F148844208D190
:1009600001214804FFF7B1FF002101204004FFF7F7
:10097000ACFF10BDF0B589B004460D46002700203D
:100980000890002620684008400020606668032127
:100990000903304688430646A86806436660266811
:1009A000E0480640E9686868084329690843064347
:1009B0002660A66803210902304688430646686916
:1009C0000643A66001A8FFF758FED448844202D12E
:1009D0000798089001E00398089020680121C90356
:1009E000084000280CD02968089A500002F06BFBE0
:1009F00007462968089A500002F065FB0E4609E098
:100A00002968089802F05FFB07462968089802F0F9
:100A10005AFB0E4628684008B04200D87F1C206868
:100A20000121C9030840002806D03807460F384680
:100A3000BD49084030430746A78109B0F0BD4B21AE
:100A4000C9010160002141608160C1600C21016128
:100A500000214161704710B5002242680F24240232
:100A60001346A3431A464C680B6823438C68234300
:100A7000CC6823431A43426010BD002101604160ED
:100A80008160C1607047002904D0026801231A43C5
:100A9000026003E002685208520002607047002AB8
:100AA00003D003680B43036002E003688B430360D9
:100AB0007047002905D002680123DB031A43026056
:100AC00004E002680123DB039A43026070470029B7
:100AD00005D082680123DB021A43826004E0826849
:100AE0000123DB029A4382607047002905D04268E7
:100AF0000123DB041A43426004E042680123DB0463
:100B00009A4342607047002905D0426801239B0444
:100B10001A43426004E0426801239B049A43426006
:100B20007047002A03D043680B43436002E04368E8
:100B30008B4343607047002905D042680123DB03E3
:100B40001A43426004E042680123DB039A43426097
:100B50007047002905D042680123DB051A43426033
:100B600004E042680123DB059A4342607047426912
:100B7000120E1206426142690A4342617047028ABC
:100B8000FF231B021A400282028A0A430282704734
:100B9000002904D0026802231A43026003E00268BD
:100BA00002239A4302607047826803231B059A431D
:100BB000826082680A4382607047002905D04268DB
:100BC00001231B051A43426004E0426801231B0510
:100BD0009A4342607047426803235B059A43426030
:100BE00042680A4342607047CA05D20D02857047C9
:100BF0000146888CC005C00D704742681202120A77
:100C0000426042680B061A4342607047002905D0D3
:100C1000026801235B031A43026004E002680123B7
:100C20005B039A430260704702680123DB029A4328
:100C3000026002680A4302607047426810239A43C8
:100C4000426042680A4342607047426820239A43E8
:100C5000426042680A4342607047002905D04268FA
:100C600001239B031A43426004E0426801239B0373
:100C70009A4342607047002904D0826808231A43CF
:100C8000826003E0826808239A4382607047028A88
:100C9000D2B20282028A0B021A43028270470029F2
:100CA00004D0826820231A43826003E082682023F4
:100CB0009A4382607047002904D0826810231A4347
:100CC000826003E0826810239A43826070478268E2
:100CD00007235B049A43826082684B041A43826054
:100CE000704742691202120A426142690B061A43B6
:100CF00042617047826804239A43826082680A4393
:100D000082607047002904D0826802231A438260FF
:100D100003E0826802239A438260704700380140F2
:100D200000440040F3E9FFFFF0FF0000002905D078
:100D3000826801239B031A43826004E082680123D6
:100D40009B039A438260704782680123DB039A43C6
:100D5000826082680A438260704702681F235B05D5
:100D60009A43026002684B051A43026070470268AA
:100D70001F231B049A43026002680B041A4302609B
:100D80007047002A03D083680B43836002E08368C6
:100D90008B4383607047826801235B039A438260C0
:100DA00082680A4382607047F8B503460024002633
:100DB00000960025002018460E04340ECEB2009690
:100DC0000127009EB7403D46022C01D1001D02E0E4
:100DD000032C00D10830002A03D006682E43066099
:100DE00002E00668AE430660F8BD002A03D0038B1C
:100DF0000B43038302E0038B8B43038370478268BA
:100E000001231B039A43826082680A438260704711
:100E100002460020D3690B40002B01D0012000E0E6
:100E2000002070470162704770B502460B460024EF
:100E30000021002500201E04350ED9B201268E4067
:100E40003146012D02D11668314006E0022D02D153
:100E50005668314001E0966831401C0C0126A640DE
:100E60003446D6693440002903D0002C01D001203B
:100E700000E0002070BD10B5002300220B0C0124FF
:100E80009C402246026210BD0146083141600021AB
:100E9000C943816001460831C160016100210160E0
:100EA000704700210161704742684A6093688B6017
:100EB000936859609160086103685B1C0360704728
:100EC00010B502460B685C1C002C01D1106907E0CC
:100ED0001046083000E04068446824689C42FAD913
:100EE00044684C604C68A160886041600A61146885
:100EF000641C146010BD01464B68886898608B685C
:100F0000486858600A695068884201D18868506012
:100F1000002008611068401E1060106870470000D3
:100F200070B505460E462C46002C02D172B600BFA5
:100F3000FEE701F0A2FD216CE06B484321684018F8
:100F400060600020A0632068A060E06B401E216C00
:100F5000484321684018E0600020C0436064A064FA
:100F6000002E10D12069002801D1012000E00020CE
:100F7000002810D12046103001F009FC01280AD1C8
:100F800001F072FD07E020461030FFF77DFF20469C
:100F90002430FFF779FF01F07BFD012070BDFEB525
:100FA00005460E46174600200090002D1DD050200B
:100FB00001F0A7FD0446002C17D028467043401CC2
:100FC0000190019801F09DFD20602068002809D063
:100FD000E563266401212046FFF7A2FF4D20075557
:100FE000009402E0204601F0DFFD0098002802D1C5
:100FF00072B600BFFEE70098FEBD10B5044601F0D2
:101000003CFD14E0606A002801D1012000E00020CE
:10101000002808D12046243001F0B9FB002803D075
:1010200001F052FC00E005E0A06C401EA064A06C42
:101030000028E7DC00BF0020C043A06401F028FDC9
:1010400001F01BFD14E02069002801D1012000E01F
:10105000002000280BD12046103001F098FB00281A
:1010600001D001F031FC606C401E606400E002E0E1
:10107000606C0028E7DC00BF0020C043606401F022
:1010800007FD10BD70B5054601F0F7FCA86BE96BD4
:10109000884201D1012400E0002401F0F9FC20463F
:1010A00070BD70B504460E461546206C002808D168
:1010B0002068002830D1606801F063FC0020606087
:1010C0002AE0002D0FD13146226CA06802F011F801
:1010D000216CA0684018A0606168A06888421BD39A
:1010E0002068A06018E03146226CE06802F001F848
:1010F000216CE068401AE0602168E068884203D211
:10110000216C6068401AE060022D05D1A06B0028B8
:1011100002D0A06B401EA063A06B401CA06370BDFA
:10112000FFB583B006460F461D46002002903446A8
:10113000002C02D172B600BFFEE7002F02D1206C56
:10114000002801D1012000E00020002802D172B661
:1011500000BFFEE7022D02D1E06B012801D1012082
:1011600000E00020002802D172B600BFFEE700BFF9
:1011700001F083FCA06BE16B884201D3022D19D1F1
:101180002A4639462046FFF78CFF606A002801D1C5
:10119000012000E00020002807D12046243001F083
:1011A000F6FA012801D101F05FFC01F071FC012089
:1011B00007B0F0BD0598002803D101F069FC0020BC
:1011C000F6E70298002804D1684601F018FB0120D8
:1011D000029001F05DFC00F088FF01F04EFC606CB5
:1011E000401C002800D16064A06C401C002800D185
:1011F000A06401F04DFC05A9684601F00CFB002835
:1012000019D12046FFF73EFF00280ED020461030AF
:10121000059901F07EFA2046FFF7EFFE00F0B8FED8
:101220000028A5D101F020FCA2E72046FFF7E5FE4B
:1012300000F0AEFE9CE72046FFF7DFFE00F0A8FEC0
:101240000020B5E770B50546502001F05AFC044671
:10125000002C1CD0002060602060A060E060A063D3
:101260000120E06300202064401E6064A0644D20E3
:10127000055520461030FFF707FE20462430FFF7C3
:1012800003FE00231A4619462046FFF749FF002CAB
:1012900002D172B600BFFEE7204670BD70B50646AB
:1012A0003446002C02D172B600BFFEE701F01DFBF0
:1012B000616888420DD1E068401EE060E068002867
:1012C00005D100231A4619462046FFF729FF0125BC
:1012D00000E00025284670BD70B5054601F0CDFB45
:1012E000A86B002801D1012400E0002401F0D0FB0C
:1012F000204670BD70B504460D46206800280ED00B
:10130000216CE0684018E0606168E068884201D3C1
:101310002068E0602846226CE16801F0EAFE70BDBA
:10132000FFB583B005460E46002002902C46002CE7
:1013300002D172B600BFFEE7002E02D1206C002859
:1013400001D1012000E00020002802D172B600BFC8
:10135000FEE700BF01F091FBA06B002837D0E768E3
:1013600031462046FFF7C6FF0698002819D1A06B2A
:10137000401EA0632068002802D101F0B6FA606028
:101380002069002801D1012000E00020002819D1A7
:101390002046103001F0FBF9012813D101F064FB65
:1013A00010E0E760606A002801D1012000E0002021
:1013B000002807D12046243001F0E9F9002801D0A7
:1013C00001F052FB01F064FB012007B0F0BD05986D
:1013D000002803D101F05CFB0020F6E7029800280A
:1013E00004D1684601F00BFA0120029001F050FB95
:1013F00000F07BFE01F041FB606C401C002800D136
:101400006064A06C401C002800D1A06401F040FB87
:1014100005A9684601F0FFF9002823D12046FFF70F
:101420005BFF002818D02068002806D101F025FBBA
:10143000606801F06BFA01F02BFB2046243005991F
:1014400001F067F92046FFF7D8FD00F0A1FD002864
:1014500080D101F009FB7DE72046FFF7CEFD00F0CB
:1014600097FD77E72046FFF7C8FD00F091FD0020CB
:10147000ABE7F8B506460F463446002C02D172B6EB
:1014800000BFFEE701F031FA6168884204D1E068EC
:10149000401CE06001250BE000233A461946204637
:1014A000FFF73EFF0546012D02D1E068401CE060D9
:1014B0002846F8BD70B505460E46002D01D0012026
:1014C00000E00020002802D172B600BFFEE7AE4265
:1014D00001D8012000E00020002802D172B600BF30
:1014E000FEE7022200212846FFF759FD0446002CA2
:1014F00000D0A663002C02D172B600BFFEE72046E2
:1015000070BDFFB583B0064617461D463446002C15
:1015100002D172B600BFFEE70498002802D1206C09
:10152000002801D1012000E00020002802D172B67D
:1015300000BFFEE7022D02D1E06B012801D101209E
:1015400000E00020002802D172B600BFFEE7FEF7DF
:10155000CBFD0190A06BE16B884201D3022D21D11C
:101560002A4620460499FFF79CFDA06C401C0028E9
:1015700012D1606A002801D1012000E0002000287B
:101580000DD12046243001F002F9002807D0002FA9
:1015900005D00120386002E0A06C401CA06401204E
:1015A000029001E0002002900198FEF7A1FD029850
:1015B00007B0F0BDF7B582B0054616462C46002CA4
:1015C00002D172B600BFFEE70398002802D1206C5A
:1015D000002801D1012000E00020002802D172B6CD
:1015E00000BFFEE7FEF780FD0190A06B002822D02F
:1015F00020460399FFF77EFEA06B401EA063606C3F
:10160000401C002812D12069002801D1012000E0EF
:10161000002000280DD12046103001F0B8F8002835
:1016200007D0002E05D00120306002E0606C401C25
:101630006064012700E000270198FEF759FD384655
:1016400005B0F0BDF3B581B005462C46002C02D1A3
:1016500072B600BFFEE70298002802D1206C002875
:1016600001D1012000E00020002802D172B600BFA5
:10167000FEE7FEF739FD0090A06B002807D0E76871
:1016800020460299FFF736FEE760012600E00026BB
:101690000098FEF72DFD3046FEBD70B50446002CC7
:1016A00002D172B600BFFEE701F0E7F9A56B01F0C9
:1016B000EFF9284670BD70B504462546002D02D1CD
:1016C00072B600BFFEE701F0D8F9A96BE86B461AC5
:1016D00001F0DEF9304670BD0146002902D172B634
:1016E00000BFFEE7886B704710B5014600200BE095
:1016F000C2003C4BD21852688A4204D10022C30077
:10170000384CE25002E0401C0828F1D300BF10BD65
:1017100070B504462546002D02D172B600BFFEE723
:101720002846FFF7E1FF286801F03EFA284601F05D
:101730003BFA70BD01464C20405C70474C2211546E
:10174000704701464D20405C70470146002902D198
:1017500072B600BFFEE78A6B002A01D1012000E0CB
:10176000002070470146002902D172B600BFFEE793
:101770008A6BCB6B9A4201D1012000E000207047B8
:1017800010B5024600200BE0C300164CE358002BB6
:1017900005D1C300E150C3001B195A6002E0401C90
:1017A0000828F1D300BF10BD70B505460E462C4683
:1017B00001F063F9606C401C002800D16064A06CEB
:1017C000401C002800D1A06401F062F9A06B002841
:1017D00004D131462046243000F0BFFF2046FFF7F9
:1017E0000CFC70BD8C000020F8B504460D46164672
:1017F0001F460020009065602461B5420CD8F01BA4
:10180000A169884202D30120009011E0211DF64811
:101810000068FFF755FB0BE0BE4204D2BD4202D385
:101820000120009004E0211DF0480068FFF748FB0C
:101830000098F8BDF0B585B005460E4617461C4623
:1018400000200390EA480068002822D00096019703
:101850000295002C15D101F04BF8012808D1002386
:101860006946E3480A9A0068FFF75AFC039010E0C3
:1018700000231A466946DE480068FFF751FC0390D2
:1018800007E0002322466946D9480068FFF739FE81
:101890000390039805B0F0BDFEB52BE0D348006877
:1018A000C0680568D1480068C068C468201DFFF79B
:1018B00022FB2046616A8847E06901281AD1A069A5
:1018C0004619AE4207D966602461211DC7480068E9
:1018D000FFF7F6FA0EE0002003462A460146009084
:1018E0002046FFF7A7FF0746002F02D172B600BFC0
:1018F000FEE700BFBD4800680068002801D1012054
:1019000000E000200028C9D0B84800680190B6481F
:101910000068B6490860B44901980860FEBD70B51A
:10192000044600F046FE0546B2480068854206D2ED
:10193000B0480068FFF7B0FF0120206001E0002000
:101940002060AC480560284670BD70B586B057E091
:10195000059C6069002801D1012000E000200028DA
:1019600002D1201DFFF7C7FA02A8FFF7D8FF0546EE
:101970000398002806D0012826D0022825D0032865
:101980003CD137E00498A269811803462A462046D4
:10199000FFF72AFF012816D12046616A8847E069CF
:1019A000012810D1002000900498A169421800235A
:1019B00019462046FFF73EFF0646002E02D172B6BA
:1019C00000BFFEE700BF1AE019E00498A061A0691B
:1019D000002801D0012000E00020002802D172B6CA
:1019E00000BFFEE7A06941192B462A462046FFF7B3
:1019F000FBFE04E0204601F0D7F800E000BF00BF86
:101A000000231A4603A97A480068FFF789FC0028DA
:101A10009ED106B070BDF8B505460F467348006804
:101A2000C068C468201DFFF766FAE069012817D175
:101A3000A06941192B463A462046FFF7D5FE0128FA
:101A40000ED1002003462A46014600902046FFF7AB
:101A5000F1FE0646002E02D172B600BFFEE700BFBF
:101A60002046616A8847F8BDF8B504460E4600F086
:101A70003CFB6846FFF753FF05460098002816D147
:101A8000002E08D1AC4206D800F082FA2946204642
:101A9000FFF7C1FF0DE0611B55480068FFF784FEAA
:101AA00000F076FA002804D100F0DEFF01E000F03B
:101AB0006FFAF8BD01464D4A12681268002A01D13A
:101AC000012200E000220A600A68002A04D1474A85
:101AD0001268D268106800E00020704708B500BFA7
:101AE0006846FFF7E7FF044620460099FFF7BCFF72
:101AF000FFF72BFFF4E710B500F0BFFF3C4800688C
:101B0000002812D13C48FFF7BFF93C48FFF7BCF969
:101B100039483649086039483349086000220C21A9
:101B20000520FFF73CFA3249086000F0B1FF10BD14
:101B30001FB50024FFF7DFFF2D48006800280CD0F8
:101B4000002002230190029000930390034650224C
:101B50002BA12D4800F0C3F80446002C02D172B628
:101B600000BFFEE7204604B010BDFFB581B00646B9
:101B70000D461746002D01D1002411E0282000F069
:101B8000C0FF0446002C0BD0FFF7B5FF2660A5610F
:101B9000E761049820620A986062201DFFF781F9CE
:101BA000002D01D0012000E00020002802D172B6F3
:101BB00000BFFEE7204605B0F0BD70B504462646DE
:101BC00000F05BFF7069002801D1012000E00020D7
:101BD000012105464D4000F05BFF284670BD0146DF
:101BE0000A46106A70470000140000201000002010
:101BF000180000201C000020CC000020E000002085
:101C0000546D722053766300DD1A000810B500246D
:101C100006E014216143FE4A8818FFF735F9641C79
:101C2000052CF6D3FB48FFF72FF9FB48FFF72CF9FB
:101C3000FA48FFF729F9FA48FFF726F9F948FFF7BC
:101C400023F9F448F8490860F348F849086010BDE2
:101C5000F8B504460F461546002608E0B95D204653
:101C600034308155B85D002800D102E0761C052E85
:101C7000F4D300BF002138200155052D00D30425E1
:101C8000E5626564201DFFF70CF920461830FFF768
:101C900008F924610520401BA0616462F8BD70B59D
:101CA00005460E46482000F02CFF0446002C14D0B8
:101CB000002E03D1A80000F024FF00E0304620638E
:101CC000206B002804D1204600F06EFF002404E0C1
:101CD000A900A522206B01F01EFA204670BDFFB5B9
:101CE00083B016460C9D0398002802D172B600BF3F
:101CF000FEE7052D01D2012000E00020002802D1DE
:101D000072B600BFFEE730460E99FFF7C8FF0446E3
:101D1000002C62D0701E8000216B0818029002987F
:101D2000C008C000029002984007400F002801D16F
:101D3000012000E00020002802D172B600BFFEE7BB
:101D400000962A4620460F9B0499FFF781FF069ACA
:101D50000399029800F054FE20600D98002801D0ED
:101D60000D98046000F089FEB1480068401CB0493D
:101D70000860B0480068002808D1AE4804600846F2
:101D8000006801280DD1FFF741FF0AE0AA4800686A
:101D9000002806D1A7480068C06AA84201D8A54813
:101DA0000460A6480068401CA44908600846006812
:101DB000E063A349E06A0968884202D9A049E06A61
:101DC00008601422E16A5143914A8818211DFFF7E7
:101DD0006BF8012700F05CFE01E00027FF43012FB4
:101DE0000AD195480068002806D092480068C06A69
:101DF000A84201D200F038FE384607B0F0BD70B5F9
:101E0000054600F03AFE002D02D18A48006800E045
:101E100028460446201DFFF76EF8A06A002803D06C
:101E200020461830FFF767F8211D7D48FFF73CF882
:101E300084480068401C8349086080480068401C52
:101E40007E49086000F024FE7B480068002805D029
:101E500078480068844201D100F006FE70BDF8B5F4
:101E6000002779480068002879D178480068401C2C
:101E70007649086008460668002E30D16A4909682C
:101E80000968002901D1012100E00021002902D1C7
:101E900072B600BFFEE76449086864490968624A8F
:101EA0001160624908606A490968491C684A116002
:101EB0005D4909680968002901D1012100E000217C
:101EC000002904D00021C943624A116006E0564946
:101ED0000968C968CC685F4A6168116000BF5D48E5
:101EE000006886423DD300BF4F4800680068002864
:101EF00001D1012000E00020002804D00020C043D0
:101F0000544908602CE048480068C068C4686568A7
:101F1000AE4202D24F48056022E0201DFEF7EBFFE3
:101F2000A06A002803D020461830FEF7E4FF444999
:101F3000E06A0968884202D94149E06A08601422CF
:101F4000E16A5143324A8818211DFEF7ADFF394935
:101F5000E06A0968C96A8842C6D30127C4E70BE072
:101F600000BF34480068C06A142148432849085813
:101F7000012806D9012704E037480068401C36498B
:101F8000086036480068002800D001273846F8BDB0
:101F900070B500252C480068002802D172B600BF39
:101FA000FEE700F06AFD28480068401E26490860E8
:101FB00008460068002875D11D480068002871D0C7
:101FC00022E01648C068C46820461830FEF793FF28
:101FD000201DFEF790FF1A49E06A0968884202D97D
:101FE0001749E06A08601422E16A5143084A8818D8
:101FF000211DFEF759FF0F49E06A0968C96A884246
:1020000002D301201549086004480068002827E031
:10201000F4000020580100206C0100208001002005
:1020200094010020A80100202400002028000020A6
:1020300030000020200000203C0000205000002044
:10204000380000202C000020400000203400002038
:102050004C000020540000204400002048000020D4
:1020600001D1012000E000200028AAD0FE4800682D
:10207000002810D00BE0FFF7F2FE002802D001206C
:10208000FA490860F8480068401EF7490860F648B9
:1020900000680028EFD1F5480068012802D1012529
:1020A00000F0E2FC00F0F4FC284670BD10B50446D8
:1020B000EF4800684460EF480068844207D2EC486B
:1020C0000168091DEC480068FEF7FAFE0CE0E848DC
:1020D0000168091DE9480068FEF7F2FEE84800685B
:1020E000844201D2E648046010BDE6480068401C06
:1020F000E44908607047FEB504460E460020019092
:10210000002C02D172B600BFFEE7002E01D00120E4
:1021100000E00020002802D172B600BFFEE7FFF702
:10212000E4FFD44800680090206885192168009871
:10213000814208D92068A8420DD9009885420AD961
:102140000120019007E02068A84202D8009885424B
:1021500001D90120019025600198002807D0C448CA
:102160000068001DFEF7C7FE2846FFF79FFFFFF738
:102170000FFF0746002F01D100F076FCFEBD70B5C1
:1021800004460026002C0FD0FFF7AFFFB9480068C7
:102190000519B7480068001DFEF7ADFE2846FFF799
:1021A00085FFFFF7F5FE0646002E01D100F05CFC2E
:1021B00070BD70B5044600F060FC002C02D1AC4844
:1021C000006800E020460646F56A00F061FC2846FB
:1021D00070BDFEB507460D4600200090052D01D2CA
:1021E000012000E00020002802D172B600BFFEE707
:1021F000052D00D3042500F040FC002F02D19C489F
:10220000006800E038460446666CAE4244D0B542F1
:102210000BD99748006884420DD095480068C06A81
:10222000A84208D80120009005E091480068844247
:1022300001D101200090E06A0190E16A606C88425F
:1022400000D1E56265640520401BA061616914222C
:10225000019850438C4A8018814201D1012000E04E
:102260000020002812D0201DFEF745FE8749E06AB5
:102270000968884202D98549E06A08601422E16A47
:102280005143814A8818211DFEF70EFE009801284F
:1022900001D100F0E9FB00BF00F0FAFBFEBD794878
:1022A0000068002803D001207049086032E0002057
:1022B0006E4908600BE075480068002802D172B6CC
:1022C00000BFFEE771480068401E704908606F4813
:1022D0000068142148436C490858002801D10120A6
:1022E00000E000200028E6D1684909681422514323
:1022F000654A88184168496841600146083142686A
:102300008A4202D14168496841604168C968584AB7
:10231000116000BF704770B5054600F0AEFB002DA0
:1023200002D15348006800E028460446201DFEF70D
:10233000E2FDA06A002803D020461830FEF7DBFD3E
:10234000211D5348FEF7B0FD00F0A2FB484800688D
:10235000844212D14F480068002802D000F084FB6C
:102360000BE04B4800684C490968884203D10020C3
:102370003F49086001E0FFF792FF70BD10B50246CB
:1023800000201146002A02D172B600BFFEE7404C81
:102390004B69A34201D1012300E00023002B11D09F
:1023A0003E4C8B6AA34201D1012300E00023002BA5
:1023B00008D18B6A002B01D1012300E00023002B00
:1023C00000D0012010BD70B505462C46002D02D16D
:1023D00072B600BFFEE7002C27D025480068844273
:1023E00023D000F04AFB2046FFF7C8FF01281AD18E
:1023F000201DFEF780FD2549E06A0968884202D960
:102400002249E06A08601422E16A51431E4A881892
:10241000211DFEF749FD1649E06A0968C96A88422C
:1024200001D300F021FB00F033FB70BDF8B5054689
:1024300000262C46002D02D172B600BFFEE7FDF744
:1024400053FE07462046FFF799FF012840D10D486B
:102450000068002837D10649E06A0968C96A8842DD
:1024600000D30126201D1BE044000020480000206E
:10247000200000203400002028000020240000203C
:102480005400002040000020F4000020380000200C
:10249000A80100203C000020300000208001002026
:1024A000FEF729FDF649E06A0968884202D9F44935
:1024B000E06A08601422E16A5143F24A8818211D3B
:1024C000FEF7F2FC04E021461831EF48FEF7ECFC81
:1024D0003846FDF70DFE3046F8BD10B50446206BBA
:1024E00000F062FB204600F05FFB10BD70B525E0F8
:1024F000FFF7FBFDE5480068002801D1012000E05E
:1025000000200546FFF744FD002D17D100F0B5FA75
:10251000DE48C068C468201DFEF7EDFCDC4800689A
:10252000401EDB490860DB480068401ED94908604E
:1025300000F0AEFA2046FFF7D0FF00BFD548006894
:102540000028D5D170BD00BFFFF7D0FFCD4800688F
:102550000128F9D900F088FAF6E71FB500200090AD
:102560000190029003463C22CBA10390CC48FFF798
:10257000B6FB0446012C02D1FFF7DAFA0446012C1F
:1025800009D172B60120C74908600020C649086019
:1025900000F051FA04E0002C02D172B600BFFEE751
:1025A0001FBD10B572B60020BE49086000F05BFA8E
:1025B00010BD10B500F061FABB48046800F068FA7D
:1025C000204610BD70B5FDF78FFD0546B64804687E
:1025D0002846FDF78DFD204670BDAD480068704768
:1025E0000146002002E0491C421C90B20A78A52A4C
:1025F000F9D080087047F7B582B006460C46002532
:102600002068002842D02046416849684160014660
:10261000083142688A4202D1416849684160416894
:10262000C968019100BF2046416849684160014680
:10263000083142688A4202D1416849684160416874
:10264000CF686801375038463430690189194860CD
:10265000F86B690189198860690189190498087300
:10266000F86A690189190861786C690189194861FA
:102670000020690189198861386BFFF7B1FF690192
:10268000891988836D1C01988742CCD1284605B0F2
:10269000F0BDF7B50546164600240527FFF725FDD2
:1026A0007B490198096888422FD300BF7F1E1422FE
:1026B0007A43744BD118620150190122FFF79BFF36
:1026C0000419002FF2D161014819022277490968E3
:1026D000FFF791FF04196101481902227449096842
:1026E000FFF789FF04196101481904226749FFF7C0
:1026F00082FF04196101481903226E49FFF77BFF2D
:102700000419002E01D000203060FFF741FC204664
:10271000FEBD70B505460C46002D02D172B600BF55
:10272000FEE76548016818312846FEF7C9FB624894
:102730000068001DFEF7DFFB601C002806D15E4824
:102740000168091D5B48FEF7AFFB05E056480068CD
:1027500006193046FFF7AAFC70BD70B504460D4659
:10276000002C02D172B600BFFEE753480168183151
:102770002046FEF799FB50480068001DFEF7BBFBA2
:102780004948006846193046FFF790FC70BD70B5A7
:102790000646F068C468002C02D172B600BFFEE79E
:1027A00020461830FEF7A7FB44480068002813D1E4
:1027B000201DFEF7A0FB3249E06A0968884202D971
:1027C0002F49E06A08601422E16A51432D4A8818B3
:1027D000211DFEF769FB04E0214618312A48FEF767
:1027E00063FB3549E06A0968C96A884204D3012558
:1027F00001203349086000E00025284670BD00280C
:1028000002D172B600BFFEE72E4909680160264971
:1028100009684160704770B504460D46002C02D12E
:1028200072B600BFFEE7002D02D172B600BFFEE710
:1028300000F023F91C4802682868401C002801D1D8
:10284000002619E01F4920680968884204D06068A2
:10285000904201D801260FE06068101A296888426A
:1028600009D228686168511A401A28602046FFF78B
:10287000C6FF002600E0012600F00AF9304670BDD0
:1028800038000020F4000020800100209401002086
:10289000300000202C00002049444C45000000007E
:1028A000472500083C0000203400002024000020C0
:1028B00028000020A8010020200000204000002067
:1028C000480000204C00002001203F49086070476C
:1028D0000146002902D00A46106C00E00020704733
:1028E000002801D0024611647047384908687047D3
:1028F00037490968002901D1002006E035490968F7
:10290000002901D1012000E00220704770B5054682
:102910002C46002D34D02D49E06A0968C96A8842E6
:102920002ED22A480068C06A0521081AA061142224
:10293000E06A5043284A80186169814201D1012030
:1029400000E00020002817D0201DFEF7D4FA1F4811
:102950000068C06AE0622149E06A0968884202D9D9
:102960001E49E06A08601422E16A51431A4A881835
:10297000211DFEF799FA03E014480068C06AE0627E
:1029800070BD70B505462C46002D1CD0616CE06A08
:10299000884218D0201DFEF7AEFA606CE062052177
:1029A000E06A081AA0610D49E06A0968884202D904
:1029B0000A49E06A08601422E16A5143064A88180D
:1029C000211DFEF771FA70BD480000202000002094
:1029D0003C00002040000020F400002038000020CF
:1029E00039480068401C002801D1012000E0002087
:1029F000002802D172B600BFFEE772B600BFFEE744
:102A0000001F01231B060360001F0160001F2F4BE6
:102A100003601438026020387047704710B57D217C
:102A2000C9002B48006800F04EFB401E2949486150
:102A30000720086110BD10B52748006AFF2109046E
:102A40000843254908620846006AFF210906084331
:102A500021490862FFF7E2FF00201B490860FDF7EB
:102A600033FB002010BD7047012000071A49486061
:102A7000BFF34F8FBFF36F8F704772B61248006875
:102A8000401C11490860BFF34F8FBFF36F8F704731
:102A90000D480068401E0C49086008460068002880
:102AA00000D162B6704710B5FDF71EFB0446FFF774
:102AB000D6F9002803D001200007074948602046C6
:102AC000FDF716FB10BD000058000020E1290008AA
:102AD0007400002000E000E000ED00E0434AD00870
:102AE000C000434A10600022414B5A60414A424BA9
:102AF0005A6000221A6001463E4A4A601A460A603D
:102B00007047F8B5044600200090FFF7EEFA3B4806
:102B10000068002804D1FFF7E1FF01203749086071
:102B2000002C09D008346007400F002804D060074B
:102B3000400F0821081A0419002C31D02D48844276
:102B40002ED22B4F3846056801E02F462D68686865
:102B5000A04202D228680028F7D1274885421FD01A
:102B6000386808300090286838606868001B1028B2
:102B700010D92E196868001B70606C6071681C4861
:102B800000E00068026852688A42FAD30268326044
:102B9000066000BF1A4968680968081A1849086081
:102BA000FFF7F6F90098F8BD70B506463546002ED9
:102BB00016D0083D2C46FFF798FA61680C4800E0F3
:102BC0000068026852688A42FAD302682260046090
:102BD0000B4960680968401809490860FFF7D8F98F
:102BE00070BD07480068704770470000C4010020AE
:102BF0005C0000205C1900006400002070000020D0
:102C00006C0000201CB50121C804FDF718FE03204C
:102C10000002009001216846017100218171C1719B
:102C20000321417169465648FDF7D6FA032109028E
:102C30005348FDF74EFB1CBD52A455A50026FFF7D7
:102C4000E1FFE1214902554800F0E0F854A000F00E
:102C500087FA5CA000F084FA204600F081FA5DA0BB
:102C600000F07EFA284600F07BFA5BA000F078FACC
:102C700021E0FF2101314248FDF72BFB01214902F0
:102C80003F48FDF728FBFF20F530FFF778FA0121D8
:102C900049023B48FDF71DFBFF2101313848FDF794
:102CA0001AFBFF20F530FFF76AFA701C0646014652
:102CB0004AA000F055FADCE78CB005A8FDF7DDFC72
:102CC0007D21C900069800F0FEF90446601E4949BE
:102CD000884200D90CE0601E474948610321081F63
:102CE00000F016F80020444988610720086100BF01
:102CF000002001230190029000930390034680225C
:102D00003EA13F48FEF7EBFFFFF727FC00BFFEE7C1
:102D100010B5002819DA3B4A03071B0F083B9B0834
:102D20009B00D2588307DC0EFF23A3409A438B07F6
:102D30001B0E8407E40EA3401A43324B0407240FF2
:102D4000083CA408A4001A5118E02F4A03231B02D0
:102D5000D21883089B00D2588307DC0EFF23A340C0
:102D60009A438B071B0E8407E40EA3401A43264B9D
:102D7000032424021B198408A4001A5110BD00006A
:102D8000000800484A756C20323720323031380054
:102D900031303A33323A303600000000003801401A
:102DA00009094672656552544F5320372E362E302E
:102DB00020666F722053544D3332463033300D0A43
:102DC0000000000009094275696C64206461746543
:102DD0003A200000200000000D0A00006C65645FCE
:102DE0007461736B206861732072756E2025647343
:102DF0002E0D0A00FFFFFF0000E000E06C6564009C
:102E0000392C00081CED00E000E100E030B589B08D
:102E100005460C4601214804FDF711FD01218803F8
:102E2000FDF71BFD0320400201900221684601725C
:102E300003214172002181720121C17201A909207F
:102E4000C006FDF7C9F901220921C806FDF74DFAB0
:102E500001220A210920C006FDF747FA2846FDF79E
:102E60006DFD039400200490059006900C200790BF
:102E70000020089003A92846FDF77CFD0121284683
:102E8000FDF701FE09B030BD70B504460D46E1B254
:102E90000C48FDF7A9FE00BF40210A48FDF7B8FF26
:102EA0000028F9D0204670BD10B5044600BF20218F
:102EB0000448FDF7ADFF0028F9D00248FDF798FE61
:102EC00010BD0000003801400CB5002001900090BA
:102ED000734800680121090408437149086000BF74
:102EE0006F48006801214904084000900198401C87
:102EF00001900098002804D1052109030198884217
:102F0000EED167480068012149040840002802D03A
:102F10000120009001E0002000900098012839D1A4
:102F20001120604908605E4840685D494860084675
:102F300040684860084640683F2109048843584972
:102F40004860084640681121090408435449486014
:102F5000084600680121090608435149086000BF7E
:102F60004F4800680121490608400028F8D04C4825
:102F70004068800880004A4948600846406802214D
:102F800008434749486000BF454840680C21084055
:102F90000828F9D10CBD10B541480068012108434B
:102FA0003F490860084640683F4908403C4948603E
:102FB000084600683D4908403949086008460068ED
:102FC00001218904884336490860084640683F214A
:102FD00009048843324948600846C06A0009000174
:102FE000C8620846006BFF21543188432C490863AE
:102FF0000846406B40084000486300208860FFF7A7
:1030000063FF10BDF8B500250024002600272448E2
:1030100040680C2108400546002D04D0042D06D040
:10302000082D2AD107E022482249086029E02048DB
:103030002049086025E01A4840680F2189040840AB
:103040000446174840680121090408400646A00CC0
:10305000841C002E04D118486043164908600BE018
:103060000F48C06A0007000F471C3946104800F09F
:103070002AF860430F49086003E00D480D490860D5
:1030800000BF00BF06484068F021084000090B4916
:103090000D5C08480068E84006490860F8BD00007B
:1030A00000100240002002400CB8FFF8FFFFF6FEBF
:1030B00000127A007400002000093D007800002012
:1030C000704700BFFEE730B50B46014600202022C6
:1030D000012409E00D46D5409D4205D31D4695408B
:1030E000491B2546954040191546521E002DF1DC1E
:1030F00030BD03460B439B0703D009E008C9121FEC
:1031000008C0042AFAD203E00B780370401C491C63
:10311000521EF9D27047D2B201E00270401C491E23
:10312000FBD270470022F6E710B513460A46044664
:103130001946FFF7F0FF204610BD0000064C0125A0
:10314000064E05E0E36807CC2B430C3C984710344F
:10315000B442F7D3FCF7B2FFF03200081033000896
:103160000FB410B503A9044B044A029800F018F8F4
:1031700010BC08BC04B01847892E00088800002045
:1031800002E008C8121F08C1002AFAD17047704730
:10319000002001E001C1121F002AFBD1704700008E
:1031A000FFB58DB00446002506E025280AD0109A08
:1031B0000F999047641C6D1C20780028F5D1284693
:1031C00011B0F0BD00270121484A009700E00743F5
:1031D000641C23780846203B98401042F7D12078A1
:1031E0002E2817D1042007436078641C2A280CD1AC
:1031F0000E98641C02C800910E900BE000990A2200
:10320000514330394018641C009020780146303911
:103210000929F3D920780028D1D0642808D069285A
:1032200006D075281ED0109A0F9990476D1C5BE050
:103230000A200E99019001C90E91002802DA40423D
:103240002D2102E0390504D52B216A461172012196
:1032500003E0F90704D02021F7E70BAE0B910DE056
:103260000021FAE70A200E99019001C90E91F7E7B3
:103270000199FFF728FF3031761E31700028F7D111
:1032800003A8801B20300190780701D5009801E049
:10329000012000900199884201DD401A00E00020E1
:1032A0000027009006E002A8109AC05D0F99904791
:1032B0006D1C7F1C0B988742F5DB04E0109A3020D0
:1032C0000F9990476D1C0099481E00900029F5DC6D
:1032D00005E03078109A761C0F9990476D1C019983
:1032E000481E01900029F4DC641C65E709280100F0
:1032F00010330008000000208C000000803100081E
:103300009C3300088C000020941E000090310008BF
:10331000000000000102030401020304060708097B
:10332000000000000000000000000000000000009D
:10333000000000000000000000000000000000008D
:10334000000000000000000000000000000000007D
:10335000000000000000000000000000000000006D
:1033600000000000FFFFFFFFAAAAAAAA00000000B9
:103370000000000000000000000000005C190000D8
:1033800000000000006CDC020000000000000000F3
:0C33900001020304060708090000000009
:04000005080000B53A
:00000001FF
